{
    "_format": "hh-sol-artifact-1",
    "contractName": "MoensNFTs",
    "sourceName": "contracts/MoensNFTs.sol",
    "abi": [
        {
            "inputs": [],
            "stateMutability": "nonpayable",
            "type": "constructor"
        },
        {
            "anonymous": false,
            "inputs": [
                {
                    "indexed": true,
                    "internalType": "address",
                    "name": "owner",
                    "type": "address"
                },
                {
                    "indexed": true,
                    "internalType": "address",
                    "name": "approved",
                    "type": "address"
                },
                {
                    "indexed": true,
                    "internalType": "uint256",
                    "name": "tokenId",
                    "type": "uint256"
                }
            ],
            "name": "Approval",
            "type": "event"
        },
        {
            "anonymous": false,
            "inputs": [
                {
                    "indexed": true,
                    "internalType": "address",
                    "name": "owner",
                    "type": "address"
                },
                {
                    "indexed": true,
                    "internalType": "address",
                    "name": "operator",
                    "type": "address"
                },
                {
                    "indexed": false,
                    "internalType": "bool",
                    "name": "approved",
                    "type": "bool"
                }
            ],
            "name": "ApprovalForAll",
            "type": "event"
        },
        {
            "anonymous": false,
            "inputs": [
                {
                    "indexed": true,
                    "internalType": "address",
                    "name": "from",
                    "type": "address"
                },
                {
                    "indexed": true,
                    "internalType": "address",
                    "name": "to",
                    "type": "address"
                },
                {
                    "indexed": true,
                    "internalType": "uint256",
                    "name": "tokenId",
                    "type": "uint256"
                }
            ],
            "name": "Transfer",
            "type": "event"
        },
        {
            "inputs": [],
            "name": "_price",
            "outputs": [
                {
                    "internalType": "uint256",
                    "name": "",
                    "type": "uint256"
                }
            ],
            "stateMutability": "view",
            "type": "function"
        },
        {
            "inputs": [
                {
                    "internalType": "address",
                    "name": "to",
                    "type": "address"
                },
                {
                    "internalType": "uint256",
                    "name": "tokenId",
                    "type": "uint256"
                }
            ],
            "name": "approve",
            "outputs": [],
            "stateMutability": "nonpayable",
            "type": "function"
        },
        {
            "inputs": [
                {
                    "internalType": "address",
                    "name": "owner",
                    "type": "address"
                }
            ],
            "name": "balanceOf",
            "outputs": [
                {
                    "internalType": "uint256",
                    "name": "",
                    "type": "uint256"
                }
            ],
            "stateMutability": "view",
            "type": "function"
        },
        {
            "inputs": [
                {
                    "internalType": "uint256",
                    "name": "tokenId",
                    "type": "uint256"
                }
            ],
            "name": "getApproved",
            "outputs": [
                {
                    "internalType": "address",
                    "name": "",
                    "type": "address"
                }
            ],
            "stateMutability": "view",
            "type": "function"
        },
        {
            "inputs": [
                {
                    "internalType": "address",
                    "name": "owner",
                    "type": "address"
                },
                {
                    "internalType": "address",
                    "name": "operator",
                    "type": "address"
                }
            ],
            "name": "isApprovedForAll",
            "outputs": [
                {
                    "internalType": "bool",
                    "name": "",
                    "type": "bool"
                }
            ],
            "stateMutability": "view",
            "type": "function"
        },
        {
            "inputs": [
                {
                    "internalType": "uint256",
                    "name": "id",
                    "type": "uint256"
                },
                {
                    "internalType": "string",
                    "name": "name",
                    "type": "string"
                },
                {
                    "internalType": "string",
                    "name": "description",
                    "type": "string"
                },
                {
                    "internalType": "string",
                    "name": "image",
                    "type": "string"
                }
            ],
            "name": "mintNft",
            "outputs": [],
            "stateMutability": "payable",
            "type": "function"
        },
        {
            "inputs": [],
            "name": "name",
            "outputs": [
                {
                    "internalType": "string",
                    "name": "",
                    "type": "string"
                }
            ],
            "stateMutability": "view",
            "type": "function"
        },
        {
            "inputs": [
                {
                    "internalType": "uint256",
                    "name": "tokenId",
                    "type": "uint256"
                }
            ],
            "name": "ownerOf",
            "outputs": [
                {
                    "internalType": "address",
                    "name": "",
                    "type": "address"
                }
            ],
            "stateMutability": "view",
            "type": "function"
        },
        {
            "inputs": [
                {
                    "internalType": "address",
                    "name": "from",
                    "type": "address"
                },
                {
                    "internalType": "address",
                    "name": "to",
                    "type": "address"
                },
                {
                    "internalType": "uint256",
                    "name": "tokenId",
                    "type": "uint256"
                }
            ],
            "name": "safeTransferFrom",
            "outputs": [],
            "stateMutability": "nonpayable",
            "type": "function"
        },
        {
            "inputs": [
                {
                    "internalType": "address",
                    "name": "from",
                    "type": "address"
                },
                {
                    "internalType": "address",
                    "name": "to",
                    "type": "address"
                },
                {
                    "internalType": "uint256",
                    "name": "tokenId",
                    "type": "uint256"
                },
                {
                    "internalType": "bytes",
                    "name": "data",
                    "type": "bytes"
                }
            ],
            "name": "safeTransferFrom",
            "outputs": [],
            "stateMutability": "nonpayable",
            "type": "function"
        },
        {
            "inputs": [
                {
                    "internalType": "address",
                    "name": "operator",
                    "type": "address"
                },
                {
                    "internalType": "bool",
                    "name": "approved",
                    "type": "bool"
                }
            ],
            "name": "setApprovalForAll",
            "outputs": [],
            "stateMutability": "nonpayable",
            "type": "function"
        },
        {
            "inputs": [
                {
                    "internalType": "bytes4",
                    "name": "interfaceId",
                    "type": "bytes4"
                }
            ],
            "name": "supportsInterface",
            "outputs": [
                {
                    "internalType": "bool",
                    "name": "",
                    "type": "bool"
                }
            ],
            "stateMutability": "view",
            "type": "function"
        },
        {
            "inputs": [],
            "name": "symbol",
            "outputs": [
                {
                    "internalType": "string",
                    "name": "",
                    "type": "string"
                }
            ],
            "stateMutability": "view",
            "type": "function"
        },
        {
            "inputs": [
                {
                    "internalType": "uint256",
                    "name": "_tokenId",
                    "type": "uint256"
                }
            ],
            "name": "tokenURI",
            "outputs": [
                {
                    "internalType": "string",
                    "name": "",
                    "type": "string"
                }
            ],
            "stateMutability": "view",
            "type": "function"
        },
        {
            "inputs": [
                {
                    "internalType": "address",
                    "name": "from",
                    "type": "address"
                },
                {
                    "internalType": "address",
                    "name": "to",
                    "type": "address"
                },
                {
                    "internalType": "uint256",
                    "name": "tokenId",
                    "type": "uint256"
                }
            ],
            "name": "transferFrom",
            "outputs": [],
            "stateMutability": "nonpayable",
            "type": "function"
        }
    ],
    "bytecode": "0x6080604052662386f26fc100006007553480156200001c57600080fd5b506040518060400160405280600881526020017f4d6f656e734e46540000000000000000000000000000000000000000000000008152506040518060400160405280600381526020017f4d4654000000000000000000000000000000000000000000000000000000000081525081600090816200009a919062000446565b508060019081620000ac919062000446565b505050620000fa6040518060400160405280602081526020017f4920616d2061626f757420746f2063726561746520736f6d65204e46547321218152506200010060201b62000b781760201c565b620005e0565b620001a081604051602401620001179190620005bc565b6040516020818303038152906040527f41304fac000000000000000000000000000000000000000000000000000000007bffffffffffffffffffffffffffffffffffffffffffffffffffffffff19166020820180517bffffffffffffffffffffffffffffffffffffffffffffffffffffffff8381831617835250505050620001a360201b60201c565b50565b60008151905060006a636f6e736f6c652e6c6f679050602083016000808483855afa5050505050565b600081519050919050565b7f4e487b7100000000000000000000000000000000000000000000000000000000600052604160045260246000fd5b7f4e487b7100000000000000000000000000000000000000000000000000000000600052602260045260246000fd5b600060028204905060018216806200024e57607f821691505b60208210810362000264576200026362000206565b5b50919050565b60008190508160005260206000209050919050565b60006020601f8301049050919050565b600082821b905092915050565b600060088302620002ce7fffffffffffffffffffffffffffffffffffffffffffffffffffffffffffffffff826200028f565b620002da86836200028f565b95508019841693508086168417925050509392505050565b6000819050919050565b6000819050919050565b600062000327620003216200031b84620002f2565b620002fc565b620002f2565b9050919050565b6000819050919050565b620003438362000306565b6200035b62000352826200032e565b8484546200029c565b825550505050565b600090565b6200037262000363565b6200037f81848462000338565b505050565b5b81811015620003a7576200039b60008262000368565b60018101905062000385565b5050565b601f821115620003f657620003c0816200026a565b620003cb846200027f565b81016020851015620003db578190505b620003f3620003ea856200027f565b83018262000384565b50505b505050565b600082821c905092915050565b60006200041b60001984600802620003fb565b1980831691505092915050565b600062000436838362000408565b9150826002028217905092915050565b6200045182620001cc565b67ffffffffffffffff8111156200046d576200046c620001d7565b5b62000479825462000235565b62000486828285620003ab565b600060209050601f831160018114620004be5760008415620004a9578287015190505b620004b5858262000428565b86555062000525565b601f198416620004ce866200026a565b60005b82811015620004f857848901518255600182019150602085019450602081019050620004d1565b8683101562000518578489015162000514601f89168262000408565b8355505b6001600288020188555050505b505050505050565b600082825260208201905092915050565b60005b838110156200055e57808201518184015260208101905062000541565b60008484015250505050565b6000601f19601f8301169050919050565b60006200058882620001cc565b6200059481856200052d565b9350620005a68185602086016200053e565b620005b1816200056a565b840191505092915050565b60006020820190508181036000830152620005d881846200057b565b905092915050565b612f0480620005f06000396000f3fe6080604052600436106100e85760003560e01c80636352211e1161008a578063b88d4fde11610059578063b88d4fde14610306578063c87b56dd1461032f578063e985e9c51461036c578063f5f26ebd146103a9576100e8565b80636352211e1461023857806370a082311461027557806395d89b41146102b2578063a22cb465146102dd576100e8565b8063095ea7b3116100c6578063095ea7b314610192578063235b6ea1146101bb57806323b872dd146101e657806342842e0e1461020f576100e8565b806301ffc9a7146100ed57806306fdde031461012a578063081812fc14610155575b600080fd5b3480156100f957600080fd5b50610114600480360381019061010f9190611c52565b6103c5565b6040516101219190611c9a565b60405180910390f35b34801561013657600080fd5b5061013f6104a7565b60405161014c9190611d45565b60405180910390f35b34801561016157600080fd5b5061017c60048036038101906101779190611d9d565b610539565b6040516101899190611e0b565b60405180910390f35b34801561019e57600080fd5b506101b960048036038101906101b49190611e52565b61057f565b005b3480156101c757600080fd5b506101d0610696565b6040516101dd9190611ea1565b60405180910390f35b3480156101f257600080fd5b5061020d60048036038101906102089190611ebc565b61069c565b005b34801561021b57600080fd5b5061023660048036038101906102319190611ebc565b6106fc565b005b34801561024457600080fd5b5061025f600480360381019061025a9190611d9d565b61071c565b60405161026c9190611e0b565b60405180910390f35b34801561028157600080fd5b5061029c60048036038101906102979190611f0f565b6107a2565b6040516102a99190611ea1565b60405180910390f35b3480156102be57600080fd5b506102c7610859565b6040516102d49190611d45565b60405180910390f35b3480156102e957600080fd5b5061030460048036038101906102ff9190611f68565b6108eb565b005b34801561031257600080fd5b5061032d600480360381019061032891906120dd565b610901565b005b34801561033b57600080fd5b5061035660048036038101906103519190611d9d565b610963565b6040516103639190611d45565b60405180910390f35b34801561037857600080fd5b50610393600480360381019061038e9190612160565b6109d7565b6040516103a09190611c9a565b60405180910390f35b6103c360048036038101906103be9190612241565b610a6b565b005b60007f80ac58cd000000000000000000000000000000000000000000000000000000007bffffffffffffffffffffffffffffffffffffffffffffffffffffffff1916827bffffffffffffffffffffffffffffffffffffffffffffffffffffffff1916148061049057507f5b5e139f000000000000000000000000000000000000000000000000000000007bffffffffffffffffffffffffffffffffffffffffffffffffffffffff1916827bffffffffffffffffffffffffffffffffffffffffffffffffffffffff1916145b806104a0575061049f82610c11565b5b9050919050565b6060600080546104b69061232b565b80601f01602080910402602001604051908101604052809291908181526020018280546104e29061232b565b801561052f5780601f106105045761010080835404028352916020019161052f565b820191906000526020600020905b81548152906001019060200180831161051257829003601f168201915b5050505050905090565b600061054482610c7b565b6004600083815260200190815260200160002060009054906101000a900473ffffffffffffffffffffffffffffffffffffffff169050919050565b600061058a8261071c565b90508073ffffffffffffffffffffffffffffffffffffffff168373ffffffffffffffffffffffffffffffffffffffff16036105fa576040517f08c379a00000000000000000000000000000000000000000000000000000000081526004016105f1906123ce565b60405180910390fd5b8073ffffffffffffffffffffffffffffffffffffffff16610619610cc6565b73ffffffffffffffffffffffffffffffffffffffff161480610648575061064781610642610cc6565b6109d7565b5b610687576040517f08c379a000000000000000000000000000000000000000000000000000000000815260040161067e90612460565b60405180910390fd5b6106918383610cce565b505050565b60075481565b6106ad6106a7610cc6565b82610d87565b6106ec576040517f08c379a00000000000000000000000000000000000000000000000000000000081526004016106e3906124f2565b60405180910390fd5b6106f7838383610e1c565b505050565b61071783838360405180602001604052806000815250610901565b505050565b60008061072883611115565b9050600073ffffffffffffffffffffffffffffffffffffffff168173ffffffffffffffffffffffffffffffffffffffff1603610799576040517f08c379a00000000000000000000000000000000000000000000000000000000081526004016107909061255e565b60405180910390fd5b80915050919050565b60008073ffffffffffffffffffffffffffffffffffffffff168273ffffffffffffffffffffffffffffffffffffffff1603610812576040517f08c379a0000000000000000000000000000000000000000000000000000000008152600401610809906125f0565b60405180910390fd5b600360008373ffffffffffffffffffffffffffffffffffffffff1673ffffffffffffffffffffffffffffffffffffffff168152602001908152602001600020549050919050565b6060600180546108689061232b565b80601f01602080910402602001604051908101604052809291908181526020018280546108949061232b565b80156108e15780601f106108b6576101008083540402835291602001916108e1565b820191906000526020600020905b8154815290600101906020018083116108c457829003601f168201915b5050505050905090565b6108fd6108f6610cc6565b8383611152565b5050565b61091261090c610cc6565b83610d87565b610951576040517f08c379a0000000000000000000000000000000000000000000000000000000008152600401610948906124f2565b60405180910390fd5b61095d848484846112be565b50505050565b606061096e8261131a565b61097757600080fd5b61099a6040518060600160405280602a8152602001612e65602a9139833361135b565b6040518060400160405280601e81526020017f2068747470733a2f2f6a736f6e6b65657065722e636f6d2f622f4c474a4b00008152509050919050565b6000600560008473ffffffffffffffffffffffffffffffffffffffff1673ffffffffffffffffffffffffffffffffffffffff16815260200190815260200160002060008373ffffffffffffffffffffffffffffffffffffffff1673ffffffffffffffffffffffffffffffffffffffff16815260200190815260200160002060009054906101000a900460ff16905092915050565b6000610a7760066113fa565b9050600754341015610abe576040517f08c379a0000000000000000000000000000000000000000000000000000000008152600401610ab590612682565b60405180910390fd5b6000610aec858585604051602001610ad89392919061280e565b604051602081830303815290604052611408565b9050600081604051602001610b0191906128b7565b6040516020818303038152906040529050610b516040518060400160405280601481526020017f46696e616c20746f6b656e205552492069733a200000000000000000000000008152508261159f565b610b5b338461163b565b610b6483610963565b50610b6f6006611659565b50505050505050565b610c0e81604051602401610b8c9190611d45565b6040516020818303038152906040527f41304fac000000000000000000000000000000000000000000000000000000007bffffffffffffffffffffffffffffffffffffffffffffffffffffffff19166020820180517bffffffffffffffffffffffffffffffffffffffffffffffffffffffff838183161783525050505061166f565b50565b60007f01ffc9a7000000000000000000000000000000000000000000000000000000007bffffffffffffffffffffffffffffffffffffffffffffffffffffffff1916827bffffffffffffffffffffffffffffffffffffffffffffffffffffffff1916149050919050565b610c848161131a565b610cc3576040517f08c379a0000000000000000000000000000000000000000000000000000000008152600401610cba9061255e565b60405180910390fd5b50565b600033905090565b816004600083815260200190815260200160002060006101000a81548173ffffffffffffffffffffffffffffffffffffffff021916908373ffffffffffffffffffffffffffffffffffffffff160217905550808273ffffffffffffffffffffffffffffffffffffffff16610d418361071c565b73ffffffffffffffffffffffffffffffffffffffff167f8c5be1e5ebec7d5bd14f71427d1e84f3dd0314c0f7b2291e5b200ac8c7c3b92560405160405180910390a45050565b600080610d938361071c565b90508073ffffffffffffffffffffffffffffffffffffffff168473ffffffffffffffffffffffffffffffffffffffff161480610dd55750610dd481856109d7565b5b80610e1357508373ffffffffffffffffffffffffffffffffffffffff16610dfb84610539565b73ffffffffffffffffffffffffffffffffffffffff16145b91505092915050565b8273ffffffffffffffffffffffffffffffffffffffff16610e3c8261071c565b73ffffffffffffffffffffffffffffffffffffffff1614610e92576040517f08c379a0000000000000000000000000000000000000000000000000000000008152600401610e899061294b565b60405180910390fd5b600073ffffffffffffffffffffffffffffffffffffffff168273ffffffffffffffffffffffffffffffffffffffff1603610f01576040517f08c379a0000000000000000000000000000000000000000000000000000000008152600401610ef8906129dd565b60405180910390fd5b610f0e8383836001611698565b8273ffffffffffffffffffffffffffffffffffffffff16610f2e8261071c565b73ffffffffffffffffffffffffffffffffffffffff1614610f84576040517f08c379a0000000000000000000000000000000000000000000000000000000008152600401610f7b9061294b565b60405180910390fd5b6004600082815260200190815260200160002060006101000a81549073ffffffffffffffffffffffffffffffffffffffff02191690556001600360008573ffffffffffffffffffffffffffffffffffffffff1673ffffffffffffffffffffffffffffffffffffffff168152602001908152602001600020600082825403925050819055506001600360008473ffffffffffffffffffffffffffffffffffffffff1673ffffffffffffffffffffffffffffffffffffffff16815260200190815260200160002060008282540192505081905550816002600083815260200190815260200160002060006101000a81548173ffffffffffffffffffffffffffffffffffffffff021916908373ffffffffffffffffffffffffffffffffffffffff160217905550808273ffffffffffffffffffffffffffffffffffffffff168473ffffffffffffffffffffffffffffffffffffffff167fddf252ad1be2c89b69c2b068fc378daa952ba7f163c4a11628f55a4df523b3ef60405160405180910390a461111083838360016117be565b505050565b60006002600083815260200190815260200160002060009054906101000a900473ffffffffffffffffffffffffffffffffffffffff169050919050565b8173ffffffffffffffffffffffffffffffffffffffff168373ffffffffffffffffffffffffffffffffffffffff16036111c0576040517f08c379a00000000000000000000000000000000000000000000000000000000081526004016111b790612a49565b60405180910390fd5b80600560008573ffffffffffffffffffffffffffffffffffffffff1673ffffffffffffffffffffffffffffffffffffffff16815260200190815260200160002060008473ffffffffffffffffffffffffffffffffffffffff1673ffffffffffffffffffffffffffffffffffffffff16815260200190815260200160002060006101000a81548160ff0219169083151502179055508173ffffffffffffffffffffffffffffffffffffffff168373ffffffffffffffffffffffffffffffffffffffff167f17307eab39ab6107e8899845ad3d59bd9653f200f220920489ca2b5937696c31836040516112b19190611c9a565b60405180910390a3505050565b6112c9848484610e1c565b6112d5848484846117c4565b611314576040517f08c379a000000000000000000000000000000000000000000000000000000000815260040161130b90612adb565b60405180910390fd5b50505050565b60008073ffffffffffffffffffffffffffffffffffffffff1661133c83611115565b73ffffffffffffffffffffffffffffffffffffffff1614159050919050565b6113f583838360405160240161137393929190612afb565b6040516020818303038152906040527f1c7ec448000000000000000000000000000000000000000000000000000000007bffffffffffffffffffffffffffffffffffffffffffffffffffffffff19166020820180517bffffffffffffffffffffffffffffffffffffffffffffffffffffffff838183161783525050505061166f565b505050565b600081600001549050919050565b606060008251905060008103611430576040518060200160405280600081525091505061159a565b600060036002836114419190612b68565b61144b9190612bcb565b60046114579190612bfc565b905060006020826114689190612b68565b67ffffffffffffffff81111561148157611480611fb2565b5b6040519080825280601f01601f1916602001820160405280156114b35781602001600182028036833780820191505090505b5090506000604051806060016040528060408152602001612e8f604091399050600181016020830160005b868110156115575760038101905062ffffff818a015116603f8160121c168401518060081b905060ff603f83600c1c1686015116810190508060081b905060ff603f8360061c1686015116810190508060081b905060ff603f831686015116810190508060e01b905080845260048401935050506114de565b50600386066001811461157157600281146115815761158c565b613d3d60f01b600283035261158c565b603d60f81b60018303525b508484525050819450505050505b919050565b61163782826040516024016115b5929190612c3e565b6040516020818303038152906040527f4b5c4277000000000000000000000000000000000000000000000000000000007bffffffffffffffffffffffffffffffffffffffffffffffffffffffff19166020820180517bffffffffffffffffffffffffffffffffffffffffffffffffffffffff838183161783525050505061166f565b5050565b61165582826040518060200160405280600081525061194b565b5050565b6001816000016000828254019250508190555050565b60008151905060006a636f6e736f6c652e6c6f679050602083016000808483855afa5050505050565b60018111156117b857600073ffffffffffffffffffffffffffffffffffffffff168473ffffffffffffffffffffffffffffffffffffffff161461172c5780600360008673ffffffffffffffffffffffffffffffffffffffff1673ffffffffffffffffffffffffffffffffffffffff16815260200190815260200160002060008282546117249190612c75565b925050819055505b600073ffffffffffffffffffffffffffffffffffffffff168373ffffffffffffffffffffffffffffffffffffffff16146117b75780600360008573ffffffffffffffffffffffffffffffffffffffff1673ffffffffffffffffffffffffffffffffffffffff16815260200190815260200160002060008282546117af9190612b68565b925050819055505b5b50505050565b50505050565b60006117e58473ffffffffffffffffffffffffffffffffffffffff166119a6565b1561193e578373ffffffffffffffffffffffffffffffffffffffff1663150b7a0261180e610cc6565b8786866040518563ffffffff1660e01b81526004016118309493929190612cfe565b6020604051808303816000875af192505050801561186c57506040513d601f19601f820116820180604052508101906118699190612d5f565b60015b6118ee573d806000811461189c576040519150601f19603f3d011682016040523d82523d6000602084013e6118a1565b606091505b5060008151036118e6576040517f08c379a00000000000000000000000000000000000000000000000000000000081526004016118dd90612adb565b60405180910390fd5b805181602001fd5b63150b7a0260e01b7bffffffffffffffffffffffffffffffffffffffffffffffffffffffff1916817bffffffffffffffffffffffffffffffffffffffffffffffffffffffff191614915050611943565b600190505b949350505050565b61195583836119c9565b61196260008484846117c4565b6119a1576040517f08c379a000000000000000000000000000000000000000000000000000000000815260040161199890612adb565b60405180910390fd5b505050565b6000808273ffffffffffffffffffffffffffffffffffffffff163b119050919050565b600073ffffffffffffffffffffffffffffffffffffffff168273ffffffffffffffffffffffffffffffffffffffff1603611a38576040517f08c379a0000000000000000000000000000000000000000000000000000000008152600401611a2f90612dd8565b60405180910390fd5b611a418161131a565b15611a81576040517f08c379a0000000000000000000000000000000000000000000000000000000008152600401611a7890612e44565b60405180910390fd5b611a8f600083836001611698565b611a988161131a565b15611ad8576040517f08c379a0000000000000000000000000000000000000000000000000000000008152600401611acf90612e44565b60405180910390fd5b6001600360008473ffffffffffffffffffffffffffffffffffffffff1673ffffffffffffffffffffffffffffffffffffffff16815260200190815260200160002060008282540192505081905550816002600083815260200190815260200160002060006101000a81548173ffffffffffffffffffffffffffffffffffffffff021916908373ffffffffffffffffffffffffffffffffffffffff160217905550808273ffffffffffffffffffffffffffffffffffffffff16600073ffffffffffffffffffffffffffffffffffffffff167fddf252ad1be2c89b69c2b068fc378daa952ba7f163c4a11628f55a4df523b3ef60405160405180910390a4611be26000838360016117be565b5050565b6000604051905090565b600080fd5b600080fd5b60007fffffffff0000000000000000000000000000000000000000000000000000000082169050919050565b611c2f81611bfa565b8114611c3a57600080fd5b50565b600081359050611c4c81611c26565b92915050565b600060208284031215611c6857611c67611bf0565b5b6000611c7684828501611c3d565b91505092915050565b60008115159050919050565b611c9481611c7f565b82525050565b6000602082019050611caf6000830184611c8b565b92915050565b600081519050919050565b600082825260208201905092915050565b60005b83811015611cef578082015181840152602081019050611cd4565b60008484015250505050565b6000601f19601f8301169050919050565b6000611d1782611cb5565b611d218185611cc0565b9350611d31818560208601611cd1565b611d3a81611cfb565b840191505092915050565b60006020820190508181036000830152611d5f8184611d0c565b905092915050565b6000819050919050565b611d7a81611d67565b8114611d8557600080fd5b50565b600081359050611d9781611d71565b92915050565b600060208284031215611db357611db2611bf0565b5b6000611dc184828501611d88565b91505092915050565b600073ffffffffffffffffffffffffffffffffffffffff82169050919050565b6000611df582611dca565b9050919050565b611e0581611dea565b82525050565b6000602082019050611e206000830184611dfc565b92915050565b611e2f81611dea565b8114611e3a57600080fd5b50565b600081359050611e4c81611e26565b92915050565b60008060408385031215611e6957611e68611bf0565b5b6000611e7785828601611e3d565b9250506020611e8885828601611d88565b9150509250929050565b611e9b81611d67565b82525050565b6000602082019050611eb66000830184611e92565b92915050565b600080600060608486031215611ed557611ed4611bf0565b5b6000611ee386828701611e3d565b9350506020611ef486828701611e3d565b9250506040611f0586828701611d88565b9150509250925092565b600060208284031215611f2557611f24611bf0565b5b6000611f3384828501611e3d565b91505092915050565b611f4581611c7f565b8114611f5057600080fd5b50565b600081359050611f6281611f3c565b92915050565b60008060408385031215611f7f57611f7e611bf0565b5b6000611f8d85828601611e3d565b9250506020611f9e85828601611f53565b9150509250929050565b600080fd5b600080fd5b7f4e487b7100000000000000000000000000000000000000000000000000000000600052604160045260246000fd5b611fea82611cfb565b810181811067ffffffffffffffff8211171561200957612008611fb2565b5b80604052505050565b600061201c611be6565b90506120288282611fe1565b919050565b600067ffffffffffffffff82111561204857612047611fb2565b5b61205182611cfb565b9050602081019050919050565b82818337600083830152505050565b600061208061207b8461202d565b612012565b90508281526020810184848401111561209c5761209b611fad565b5b6120a784828561205e565b509392505050565b600082601f8301126120c4576120c3611fa8565b5b81356120d484826020860161206d565b91505092915050565b600080600080608085870312156120f7576120f6611bf0565b5b600061210587828801611e3d565b945050602061211687828801611e3d565b935050604061212787828801611d88565b925050606085013567ffffffffffffffff81111561214857612147611bf5565b5b612154878288016120af565b91505092959194509250565b6000806040838503121561217757612176611bf0565b5b600061218585828601611e3d565b925050602061219685828601611e3d565b9150509250929050565b600067ffffffffffffffff8211156121bb576121ba611fb2565b5b6121c482611cfb565b9050602081019050919050565b60006121e46121df846121a0565b612012565b905082815260208101848484011115612200576121ff611fad565b5b61220b84828561205e565b509392505050565b600082601f83011261222857612227611fa8565b5b81356122388482602086016121d1565b91505092915050565b6000806000806080858703121561225b5761225a611bf0565b5b600061226987828801611d88565b945050602085013567ffffffffffffffff81111561228a57612289611bf5565b5b61229687828801612213565b935050604085013567ffffffffffffffff8111156122b7576122b6611bf5565b5b6122c387828801612213565b925050606085013567ffffffffffffffff8111156122e4576122e3611bf5565b5b6122f087828801612213565b91505092959194509250565b7f4e487b7100000000000000000000000000000000000000000000000000000000600052602260045260246000fd5b6000600282049050600182168061234357607f821691505b602082108103612356576123556122fc565b5b50919050565b7f4552433732313a20617070726f76616c20746f2063757272656e74206f776e6560008201527f7200000000000000000000000000000000000000000000000000000000000000602082015250565b60006123b8602183611cc0565b91506123c38261235c565b604082019050919050565b600060208201905081810360008301526123e7816123ab565b9050919050565b7f4552433732313a20617070726f76652063616c6c6572206973206e6f7420746f60008201527f6b656e206f776e6572206f7220617070726f76656420666f7220616c6c000000602082015250565b600061244a603d83611cc0565b9150612455826123ee565b604082019050919050565b600060208201905081810360008301526124798161243d565b9050919050565b7f4552433732313a2063616c6c6572206973206e6f7420746f6b656e206f776e6560008201527f72206f7220617070726f76656400000000000000000000000000000000000000602082015250565b60006124dc602d83611cc0565b91506124e782612480565b604082019050919050565b6000602082019050818103600083015261250b816124cf565b9050919050565b7f4552433732313a20696e76616c696420746f6b656e2049440000000000000000600082015250565b6000612548601883611cc0565b915061255382612512565b602082019050919050565b600060208201905081810360008301526125778161253b565b9050919050565b7f4552433732313a2061646472657373207a65726f206973206e6f74206120766160008201527f6c6964206f776e65720000000000000000000000000000000000000000000000602082015250565b60006125da602983611cc0565b91506125e58261257e565b604082019050919050565b60006020820190508181036000830152612609816125cd565b9050919050565b7f496e73756666696369656e7420616d6f756e74206f6620457468657221204b6960008201527f6e646c7920746f702075702e0000000000000000000000000000000000000000602082015250565b600061266c602c83611cc0565b915061267782612610565b604082019050919050565b6000602082019050818103600083015261269b8161265f565b9050919050565b600081905092915050565b7f7b226e616d65223a202200000000000000000000000000000000000000000000600082015250565b60006126e3600a836126a2565b91506126ee826126ad565b600a82019050919050565b600061270482611cb5565b61270e81856126a2565b935061271e818560208601611cd1565b80840191505092915050565b7f222c20226465736372697074696f6e223a202200000000000000000000000000600082015250565b60006127606013836126a2565b915061276b8261272a565b601382019050919050565b7f222c2022696d616765223a202200000000000000000000000000000000000000600082015250565b60006127ac600d836126a2565b91506127b782612776565b600d82019050919050565b7f227d000000000000000000000000000000000000000000000000000000000000600082015250565b60006127f86002836126a2565b9150612803826127c2565b600282019050919050565b6000612819826126d6565b915061282582866126f9565b915061283082612753565b915061283c82856126f9565b91506128478261279f565b915061285382846126f9565b915061285e826127eb565b9150819050949350505050565b7f646174613a6170706c69636174696f6e2f6a736f6e3b6261736536342c000000600082015250565b60006128a1601d836126a2565b91506128ac8261286b565b601d82019050919050565b60006128c282612894565b91506128ce82846126f9565b915081905092915050565b7f4552433732313a207472616e736665722066726f6d20696e636f72726563742060008201527f6f776e6572000000000000000000000000000000000000000000000000000000602082015250565b6000612935602583611cc0565b9150612940826128d9565b604082019050919050565b6000602082019050818103600083015261296481612928565b9050919050565b7f4552433732313a207472616e7366657220746f20746865207a65726f2061646460008201527f7265737300000000000000000000000000000000000000000000000000000000602082015250565b60006129c7602483611cc0565b91506129d28261296b565b604082019050919050565b600060208201905081810360008301526129f6816129ba565b9050919050565b7f4552433732313a20617070726f766520746f2063616c6c657200000000000000600082015250565b6000612a33601983611cc0565b9150612a3e826129fd565b602082019050919050565b60006020820190508181036000830152612a6281612a26565b9050919050565b7f4552433732313a207472616e7366657220746f206e6f6e20455243373231526560008201527f63656976657220696d706c656d656e7465720000000000000000000000000000602082015250565b6000612ac5603283611cc0565b9150612ad082612a69565b604082019050919050565b60006020820190508181036000830152612af481612ab8565b9050919050565b60006060820190508181036000830152612b158186611d0c565b9050612b246020830185611e92565b612b316040830184611dfc565b949350505050565b7f4e487b7100000000000000000000000000000000000000000000000000000000600052601160045260246000fd5b6000612b7382611d67565b9150612b7e83611d67565b9250828201905080821115612b9657612b95612b39565b5b92915050565b7f4e487b7100000000000000000000000000000000000000000000000000000000600052601260045260246000fd5b6000612bd682611d67565b9150612be183611d67565b925082612bf157612bf0612b9c565b5b828204905092915050565b6000612c0782611d67565b9150612c1283611d67565b9250828202612c2081611d67565b91508282048414831517612c3757612c36612b39565b5b5092915050565b60006040820190508181036000830152612c588185611d0c565b90508181036020830152612c6c8184611d0c565b90509392505050565b6000612c8082611d67565b9150612c8b83611d67565b9250828203905081811115612ca357612ca2612b39565b5b92915050565b600081519050919050565b600082825260208201905092915050565b6000612cd082612ca9565b612cda8185612cb4565b9350612cea818560208601611cd1565b612cf381611cfb565b840191505092915050565b6000608082019050612d136000830187611dfc565b612d206020830186611dfc565b612d2d6040830185611e92565b8181036060830152612d3f8184612cc5565b905095945050505050565b600081519050612d5981611c26565b92915050565b600060208284031215612d7557612d74611bf0565b5b6000612d8384828501612d4a565b91505092915050565b7f4552433732313a206d696e7420746f20746865207a65726f2061646472657373600082015250565b6000612dc2602083611cc0565b9150612dcd82612d8c565b602082019050919050565b60006020820190508181036000830152612df181612db5565b9050919050565b7f4552433732313a20746f6b656e20616c7265616479206d696e74656400000000600082015250565b6000612e2e601c83611cc0565b9150612e3982612df8565b602082019050919050565b60006020820190508181036000830152612e5d81612e21565b905091905056fe416e204e46542077697468204944206f6620257320686173206265656e206d696e74656420746f2025734142434445464748494a4b4c4d4e4f505152535455565758595a6162636465666768696a6b6c6d6e6f707172737475767778797a303132333435363738392b2fa2646970667358221220f2ea828635d5b21185016390a95b1d543bf470e38c9522bbcf9fcc27eed34fb164736f6c63430008110033",
    "linkReferences": {},
    "deployedLinkReferences": {}
}