{
  "_format": "hh-sol-artifact-1",
  "contractName": "MoensNFTs",
  "sourceName": "contracts/MoensNFTs.sol",
  "abi": [
    {
      "inputs": [],
      "stateMutability": "nonpayable",
      "type": "constructor"
    },
    {
      "anonymous": false,
      "inputs": [
        {
          "indexed": true,
          "internalType": "address",
          "name": "owner",
          "type": "address"
        },
        {
          "indexed": true,
          "internalType": "address",
          "name": "approved",
          "type": "address"
        },
        {
          "indexed": true,
          "internalType": "uint256",
          "name": "tokenId",
          "type": "uint256"
        }
      ],
      "name": "Approval",
      "type": "event"
    },
    {
      "anonymous": false,
      "inputs": [
        {
          "indexed": true,
          "internalType": "address",
          "name": "owner",
          "type": "address"
        },
        {
          "indexed": true,
          "internalType": "address",
          "name": "operator",
          "type": "address"
        },
        {
          "indexed": false,
          "internalType": "bool",
          "name": "approved",
          "type": "bool"
        }
      ],
      "name": "ApprovalForAll",
      "type": "event"
    },
    {
      "anonymous": false,
      "inputs": [
        {
          "indexed": true,
          "internalType": "address",
          "name": "from",
          "type": "address"
        },
        {
          "indexed": true,
          "internalType": "address",
          "name": "to",
          "type": "address"
        },
        {
          "indexed": true,
          "internalType": "uint256",
          "name": "tokenId",
          "type": "uint256"
        }
      ],
      "name": "Transfer",
      "type": "event"
    },
    {
      "inputs": [],
      "name": "_price",
      "outputs": [
        {
          "internalType": "uint256",
          "name": "",
          "type": "uint256"
        }
      ],
      "stateMutability": "view",
      "type": "function"
    },
    {
      "inputs": [
        {
          "internalType": "address",
          "name": "to",
          "type": "address"
        },
        {
          "internalType": "uint256",
          "name": "tokenId",
          "type": "uint256"
        }
      ],
      "name": "approve",
      "outputs": [],
      "stateMutability": "nonpayable",
      "type": "function"
    },
    {
      "inputs": [
        {
          "internalType": "address",
          "name": "owner",
          "type": "address"
        }
      ],
      "name": "balanceOf",
      "outputs": [
        {
          "internalType": "uint256",
          "name": "",
          "type": "uint256"
        }
      ],
      "stateMutability": "view",
      "type": "function"
    },
    {
      "inputs": [
        {
          "internalType": "uint256",
          "name": "tokenId",
          "type": "uint256"
        }
      ],
      "name": "getApproved",
      "outputs": [
        {
          "internalType": "address",
          "name": "",
          "type": "address"
        }
      ],
      "stateMutability": "view",
      "type": "function"
    },
    {
      "inputs": [
        {
          "internalType": "address",
          "name": "owner",
          "type": "address"
        },
        {
          "internalType": "address",
          "name": "operator",
          "type": "address"
        }
      ],
      "name": "isApprovedForAll",
      "outputs": [
        {
          "internalType": "bool",
          "name": "",
          "type": "bool"
        }
      ],
      "stateMutability": "view",
      "type": "function"
    },
    {
      "inputs": [
        {
          "internalType": "uint256",
          "name": "id",
          "type": "uint256"
        },
        {
          "internalType": "string",
          "name": "name",
          "type": "string"
        },
        {
          "internalType": "string",
          "name": "description",
          "type": "string"
        },
        {
          "internalType": "string",
          "name": "image",
          "type": "string"
        }
      ],
      "name": "mintNft",
      "outputs": [],
      "stateMutability": "payable",
      "type": "function"
    },
    {
      "inputs": [
        {
          "internalType": "uint256",
          "name": "",
          "type": "uint256"
        }
      ],
      "name": "mintedNfts",
      "outputs": [
        {
          "internalType": "uint256",
          "name": "",
          "type": "uint256"
        }
      ],
      "stateMutability": "view",
      "type": "function"
    },
    {
      "inputs": [],
      "name": "name",
      "outputs": [
        {
          "internalType": "string",
          "name": "",
          "type": "string"
        }
      ],
      "stateMutability": "view",
      "type": "function"
    },
    {
      "inputs": [
        {
          "internalType": "uint256",
          "name": "tokenId",
          "type": "uint256"
        }
      ],
      "name": "ownerOf",
      "outputs": [
        {
          "internalType": "address",
          "name": "",
          "type": "address"
        }
      ],
      "stateMutability": "view",
      "type": "function"
    },
    {
      "inputs": [
        {
          "internalType": "address",
          "name": "from",
          "type": "address"
        },
        {
          "internalType": "address",
          "name": "to",
          "type": "address"
        },
        {
          "internalType": "uint256",
          "name": "tokenId",
          "type": "uint256"
        }
      ],
      "name": "safeTransferFrom",
      "outputs": [],
      "stateMutability": "nonpayable",
      "type": "function"
    },
    {
      "inputs": [
        {
          "internalType": "address",
          "name": "from",
          "type": "address"
        },
        {
          "internalType": "address",
          "name": "to",
          "type": "address"
        },
        {
          "internalType": "uint256",
          "name": "tokenId",
          "type": "uint256"
        },
        {
          "internalType": "bytes",
          "name": "data",
          "type": "bytes"
        }
      ],
      "name": "safeTransferFrom",
      "outputs": [],
      "stateMutability": "nonpayable",
      "type": "function"
    },
    {
      "inputs": [
        {
          "internalType": "address",
          "name": "operator",
          "type": "address"
        },
        {
          "internalType": "bool",
          "name": "approved",
          "type": "bool"
        }
      ],
      "name": "setApprovalForAll",
      "outputs": [],
      "stateMutability": "nonpayable",
      "type": "function"
    },
    {
      "inputs": [],
      "name": "showMintedNfts",
      "outputs": [
        {
          "internalType": "uint256[]",
          "name": "",
          "type": "uint256[]"
        }
      ],
      "stateMutability": "view",
      "type": "function"
    },
    {
      "inputs": [
        {
          "internalType": "bytes4",
          "name": "interfaceId",
          "type": "bytes4"
        }
      ],
      "name": "supportsInterface",
      "outputs": [
        {
          "internalType": "bool",
          "name": "",
          "type": "bool"
        }
      ],
      "stateMutability": "view",
      "type": "function"
    },
    {
      "inputs": [],
      "name": "symbol",
      "outputs": [
        {
          "internalType": "string",
          "name": "",
          "type": "string"
        }
      ],
      "stateMutability": "view",
      "type": "function"
    },
    {
      "inputs": [
        {
          "internalType": "uint256",
          "name": "_tokenId",
          "type": "uint256"
        }
      ],
      "name": "tokenURI",
      "outputs": [
        {
          "internalType": "string",
          "name": "",
          "type": "string"
        }
      ],
      "stateMutability": "view",
      "type": "function"
    },
    {
      "inputs": [
        {
          "internalType": "address",
          "name": "from",
          "type": "address"
        },
        {
          "internalType": "address",
          "name": "to",
          "type": "address"
        },
        {
          "internalType": "uint256",
          "name": "tokenId",
          "type": "uint256"
        }
      ],
      "name": "transferFrom",
      "outputs": [],
      "stateMutability": "nonpayable",
      "type": "function"
    }
  ],
  "bytecode": "0x6080604052662386f26fc100006008553480156200001c57600080fd5b506040518060400160405280600881526020017f4d6f656e734e46540000000000000000000000000000000000000000000000008152506040518060400160405280600381526020017f4d4654000000000000000000000000000000000000000000000000000000000081525081600090816200009a919062000446565b508060019081620000ac919062000446565b505050620000fa6040518060400160405280602081526020017f4920616d2061626f757420746f2063726561746520736f6d65204e46547321218152506200010060201b620011fd1760201c565b620005e0565b620001a081604051602401620001179190620005bc565b6040516020818303038152906040527f41304fac000000000000000000000000000000000000000000000000000000007bffffffffffffffffffffffffffffffffffffffffffffffffffffffff19166020820180517bffffffffffffffffffffffffffffffffffffffffffffffffffffffff8381831617835250505050620001a360201b60201c565b50565b60008151905060006a636f6e736f6c652e6c6f679050602083016000808483855afa5050505050565b600081519050919050565b7f4e487b7100000000000000000000000000000000000000000000000000000000600052604160045260246000fd5b7f4e487b7100000000000000000000000000000000000000000000000000000000600052602260045260246000fd5b600060028204905060018216806200024e57607f821691505b60208210810362000264576200026362000206565b5b50919050565b60008190508160005260206000209050919050565b60006020601f8301049050919050565b600082821b905092915050565b600060088302620002ce7fffffffffffffffffffffffffffffffffffffffffffffffffffffffffffffffff826200028f565b620002da86836200028f565b95508019841693508086168417925050509392505050565b6000819050919050565b6000819050919050565b600062000327620003216200031b84620002f2565b620002fc565b620002f2565b9050919050565b6000819050919050565b620003438362000306565b6200035b62000352826200032e565b8484546200029c565b825550505050565b600090565b6200037262000363565b6200037f81848462000338565b505050565b5b81811015620003a7576200039b60008262000368565b60018101905062000385565b5050565b601f821115620003f657620003c0816200026a565b620003cb846200027f565b81016020851015620003db578190505b620003f3620003ea856200027f565b83018262000384565b50505b505050565b600082821c905092915050565b60006200041b60001984600802620003fb565b1980831691505092915050565b600062000436838362000408565b9150826002028217905092915050565b6200045182620001cc565b67ffffffffffffffff8111156200046d576200046c620001d7565b5b62000479825462000235565b62000486828285620003ab565b600060209050601f831160018114620004be5760008415620004a9578287015190505b620004b5858262000428565b86555062000525565b601f198416620004ce866200026a565b60005b82811015620004f857848901518255600182019150602085019450602081019050620004d1565b8683101562000518578489015162000514601f89168262000408565b8355505b6001600288020188555050505b505050505050565b600082825260208201905092915050565b60005b838110156200055e57808201518184015260208101905062000541565b60008484015250505050565b6000601f19601f8301169050919050565b60006200058882620001cc565b6200059481856200052d565b9350620005a68185602086016200053e565b620005b1816200056a565b840191505092915050565b60006020820190508181036000830152620005d881846200057b565b905092915050565b613a5c80620005f06000396000f3fe6080604052600436106100fe5760003560e01c80636858694711610095578063b88d4fde11610064578063b88d4fde14610347578063c87b56dd14610370578063e985e9c5146103ad578063f5f26ebd146103ea578063f761561314610406576100fe565b8063685869471461028b57806370a08231146102b657806395d89b41146102f3578063a22cb4651461031e576100fe565b8063235b6ea1116100d1578063235b6ea1146101d157806323b872dd146101fc57806342842e0e146102255780636352211e1461024e576100fe565b806301ffc9a71461010357806306fdde0314610140578063081812fc1461016b578063095ea7b3146101a8575b600080fd5b34801561010f57600080fd5b5061012a60048036038101906101259190612336565b610443565b604051610137919061237e565b60405180910390f35b34801561014c57600080fd5b50610155610525565b6040516101629190612429565b60405180910390f35b34801561017757600080fd5b50610192600480360381019061018d9190612481565b6105b7565b60405161019f91906124ef565b60405180910390f35b3480156101b457600080fd5b506101cf60048036038101906101ca9190612536565b6105fd565b005b3480156101dd57600080fd5b506101e6610714565b6040516101f39190612585565b60405180910390f35b34801561020857600080fd5b50610223600480360381019061021e91906125a0565b61071a565b005b34801561023157600080fd5b5061024c600480360381019061024791906125a0565b61077a565b005b34801561025a57600080fd5b5061027560048036038101906102709190612481565b61079a565b60405161028291906124ef565b60405180910390f35b34801561029757600080fd5b506102a0610820565b6040516102ad91906126b1565b60405180910390f35b3480156102c257600080fd5b506102dd60048036038101906102d891906126d3565b610878565b6040516102ea9190612585565b60405180910390f35b3480156102ff57600080fd5b5061030861092f565b6040516103159190612429565b60405180910390f35b34801561032a57600080fd5b506103456004803603810190610340919061272c565b6109c1565b005b34801561035357600080fd5b5061036e600480360381019061036991906128a1565b6109d7565b005b34801561037c57600080fd5b5061039760048036038101906103929190612481565b610a39565b6040516103a49190612429565b60405180910390f35b3480156103b957600080fd5b506103d460048036038101906103cf9190612924565b611006565b6040516103e1919061237e565b60405180910390f35b61040460048036038101906103ff9190612a05565b61109a565b005b34801561041257600080fd5b5061042d60048036038101906104289190612481565b6111d9565b60405161043a9190612585565b60405180910390f35b60007f80ac58cd000000000000000000000000000000000000000000000000000000007bffffffffffffffffffffffffffffffffffffffffffffffffffffffff1916827bffffffffffffffffffffffffffffffffffffffffffffffffffffffff1916148061050e57507f5b5e139f000000000000000000000000000000000000000000000000000000007bffffffffffffffffffffffffffffffffffffffffffffffffffffffff1916827bffffffffffffffffffffffffffffffffffffffffffffffffffffffff1916145b8061051e575061051d82611296565b5b9050919050565b60606000805461053490612aef565b80601f016020809104026020016040519081016040528092919081815260200182805461056090612aef565b80156105ad5780601f10610582576101008083540402835291602001916105ad565b820191906000526020600020905b81548152906001019060200180831161059057829003601f168201915b5050505050905090565b60006105c282611300565b6004600083815260200190815260200160002060009054906101000a900473ffffffffffffffffffffffffffffffffffffffff169050919050565b60006106088261079a565b90508073ffffffffffffffffffffffffffffffffffffffff168373ffffffffffffffffffffffffffffffffffffffff1603610678576040517f08c379a000000000000000000000000000000000000000000000000000000000815260040161066f90612b92565b60405180910390fd5b8073ffffffffffffffffffffffffffffffffffffffff1661069761134b565b73ffffffffffffffffffffffffffffffffffffffff1614806106c657506106c5816106c061134b565b611006565b5b610705576040517f08c379a00000000000000000000000000000000000000000000000000000000081526004016106fc90612c24565b60405180910390fd5b61070f8383611353565b505050565b60085481565b61072b61072561134b565b8261140c565b61076a576040517f08c379a000000000000000000000000000000000000000000000000000000000815260040161076190612cb6565b60405180910390fd5b6107758383836114a1565b505050565b610795838383604051806020016040528060008152506109d7565b505050565b6000806107a68361179a565b9050600073ffffffffffffffffffffffffffffffffffffffff168173ffffffffffffffffffffffffffffffffffffffff1603610817576040517f08c379a000000000000000000000000000000000000000000000000000000000815260040161080e90612d22565b60405180910390fd5b80915050919050565b6060600980548060200260200160405190810160405280929190818152602001828054801561086e57602002820191906000526020600020905b81548152602001906001019080831161085a575b5050505050905090565b60008073ffffffffffffffffffffffffffffffffffffffff168273ffffffffffffffffffffffffffffffffffffffff16036108e8576040517f08c379a00000000000000000000000000000000000000000000000000000000081526004016108df90612db4565b60405180910390fd5b600360008373ffffffffffffffffffffffffffffffffffffffff1673ffffffffffffffffffffffffffffffffffffffff168152602001908152602001600020549050919050565b60606001805461093e90612aef565b80601f016020809104026020016040519081016040528092919081815260200182805461096a90612aef565b80156109b75780601f1061098c576101008083540402835291602001916109b7565b820191906000526020600020905b81548152906001019060200180831161099a57829003601f168201915b5050505050905090565b6109d36109cc61134b565b83836117d7565b5050565b6109e86109e261134b565b8361140c565b610a27576040517f08c379a0000000000000000000000000000000000000000000000000000000008152600401610a1e90612cb6565b60405180910390fd5b610a3384848484611943565b50505050565b6060610a448261199f565b610a4d57600080fd5b606060008303610a94576040518060400160405280601e81526020017f2068747470733a2f2f6a736f6e6b65657065722e636f6d2f622f5332523100008152509050610fda565b60018303610abc5760405180606001604052806021815260200161395a602191399050610fd9565b60028303610ae457604051806060016040528060218152602001613939602191399050610fd8565b60038303610b0c5760405180606001604052806021815260200161399c602191399050610fd7565b60048303610b345760405180606001604052806021815260200161397b602191399050610fd6565b60058303610b79576040518060400160405280601d81526020017f68747470733a2f2f6a736f6e6b65657065722e636f6d2f622f515955300000008152509050610fd5565b60068303610bbe576040518060400160405280601d81526020017f68747470733a2f2f6a736f6e6b65657065722e636f6d2f622f523139360000008152509050610fd4565b60078303610c03576040518060400160405280601d81526020017f68747470733a2f2f6a736f6e6b65657065722e636f6d2f622f43304f440000008152509050610fd3565b60088303610c48576040518060400160405280601d81526020017f68747470733a2f2f6a736f6e6b65657065722e636f6d2f622f4c4f475a0000008152509050610fd2565b60098303610c8d576040518060400160405280601e81526020017f2068747470733a2f2f6a736f6e6b65657065722e636f6d2f622f4558503500008152509050610fd1565b600a8303610cd2576040518060400160405280601d81526020017f68747470733a2f2f6a736f6e6b65657065722e636f6d2f622f4b42474f0000008152509050610fd0565b600b8303610d17576040518060400160405280601d81526020017f68747470733a2f2f6a736f6e6b65657065722e636f6d2f622f314e38480000008152509050610fcf565b600c8303610d5c576040518060400160405280601d81526020017f68747470733a2f2f6a736f6e6b65657065722e636f6d2f622f35514e340000008152509050610fce565b600d8303610da1576040518060400160405280601d81526020017f68747470733a2f2f6a736f6e6b65657065722e636f6d2f622f36424e5a0000008152509050610fcd565b600e8303610de6576040518060400160405280601d81526020017f68747470733a2f2f6a736f6e6b65657065722e636f6d2f622f4b3547440000008152509050610fcc565b600f8303610e2b576040518060400160405280601d81526020017f68747470733a2f2f6a736f6e6b65657065722e636f6d2f622f334f57420000008152509050610fcb565b60108303610e70576040518060400160405280601d81526020017f68747470733a2f2f6a736f6e6b65657065722e636f6d2f622f474f31380000008152509050610fca565b60118303610eb5576040518060400160405280601d81526020017f68747470733a2f2f6a736f6e6b65657065722e636f6d2f622f544b38390000008152509050610fc9565b60128303610efa576040518060400160405280601d81526020017f68747470733a2f2f6a736f6e6b65657065722e636f6d2f622f54545a460000008152509050610fc8565b60138303610f3f576040518060400160405280601d81526020017f68747470733a2f2f6a736f6e6b65657065722e636f6d2f622f554d4e420000008152509050610fc7565b60148303610f84576040518060400160405280601d81526020017f68747470733a2f2f6a736f6e6b65657065722e636f6d2f622f41334a4b0000008152509050610fc6565b60158303610fc5576040518060400160405280601d81526020017f68747470733a2f2f6a736f6e6b65657065722e636f6d2f622f3243525100000081525090505b5b5b5b5b5b5b5b5b5b5b5b5b5b5b5b5b5b5b5b5b5b610ffd6040518060600160405280602a81526020016139bd602a913984336119e0565b80915050919050565b6000600560008473ffffffffffffffffffffffffffffffffffffffff1673ffffffffffffffffffffffffffffffffffffffff16815260200190815260200160002060008373ffffffffffffffffffffffffffffffffffffffff1673ffffffffffffffffffffffffffffffffffffffff16815260200190815260200160002060009054906101000a900460ff16905092915050565b60008490506008543410156110e4576040517f08c379a00000000000000000000000000000000000000000000000000000000081526004016110db90612e46565b60405180910390fd5b600061111a85856110f486611a7f565b60405160200161110693929190612fd2565b604051602081830303815290604052611a7f565b905060008160405160200161112f919061307b565b604051602081830303815290604052905061117f6040518060400160405280601481526020017f46696e616c20746f6b656e205552492069733a2000000000000000000000000081525082611c16565b6111893384611cb2565b61119283610a39565b5061119d8382611cd0565b60098790806001815401808255809150506001900390600052602060002001600090919091909150556111d06007611d3d565b50505050505050565b600981815481106111e957600080fd5b906000526020600020016000915090505481565b611293816040516024016112119190612429565b6040516020818303038152906040527f41304fac000000000000000000000000000000000000000000000000000000007bffffffffffffffffffffffffffffffffffffffffffffffffffffffff19166020820180517bffffffffffffffffffffffffffffffffffffffffffffffffffffffff8381831617835250505050611d53565b50565b60007f01ffc9a7000000000000000000000000000000000000000000000000000000007bffffffffffffffffffffffffffffffffffffffffffffffffffffffff1916827bffffffffffffffffffffffffffffffffffffffffffffffffffffffff1916149050919050565b6113098161199f565b611348576040517f08c379a000000000000000000000000000000000000000000000000000000000815260040161133f90612d22565b60405180910390fd5b50565b600033905090565b816004600083815260200190815260200160002060006101000a81548173ffffffffffffffffffffffffffffffffffffffff021916908373ffffffffffffffffffffffffffffffffffffffff160217905550808273ffffffffffffffffffffffffffffffffffffffff166113c68361079a565b73ffffffffffffffffffffffffffffffffffffffff167f8c5be1e5ebec7d5bd14f71427d1e84f3dd0314c0f7b2291e5b200ac8c7c3b92560405160405180910390a45050565b6000806114188361079a565b90508073ffffffffffffffffffffffffffffffffffffffff168473ffffffffffffffffffffffffffffffffffffffff16148061145a57506114598185611006565b5b8061149857508373ffffffffffffffffffffffffffffffffffffffff16611480846105b7565b73ffffffffffffffffffffffffffffffffffffffff16145b91505092915050565b8273ffffffffffffffffffffffffffffffffffffffff166114c18261079a565b73ffffffffffffffffffffffffffffffffffffffff1614611517576040517f08c379a000000000000000000000000000000000000000000000000000000000815260040161150e9061310f565b60405180910390fd5b600073ffffffffffffffffffffffffffffffffffffffff168273ffffffffffffffffffffffffffffffffffffffff1603611586576040517f08c379a000000000000000000000000000000000000000000000000000000000815260040161157d906131a1565b60405180910390fd5b6115938383836001611d7c565b8273ffffffffffffffffffffffffffffffffffffffff166115b38261079a565b73ffffffffffffffffffffffffffffffffffffffff1614611609576040517f08c379a00000000000000000000000000000000000000000000000000000000081526004016116009061310f565b60405180910390fd5b6004600082815260200190815260200160002060006101000a81549073ffffffffffffffffffffffffffffffffffffffff02191690556001600360008573ffffffffffffffffffffffffffffffffffffffff1673ffffffffffffffffffffffffffffffffffffffff168152602001908152602001600020600082825403925050819055506001600360008473ffffffffffffffffffffffffffffffffffffffff1673ffffffffffffffffffffffffffffffffffffffff16815260200190815260200160002060008282540192505081905550816002600083815260200190815260200160002060006101000a81548173ffffffffffffffffffffffffffffffffffffffff021916908373ffffffffffffffffffffffffffffffffffffffff160217905550808273ffffffffffffffffffffffffffffffffffffffff168473ffffffffffffffffffffffffffffffffffffffff167fddf252ad1be2c89b69c2b068fc378daa952ba7f163c4a11628f55a4df523b3ef60405160405180910390a46117958383836001611ea2565b505050565b60006002600083815260200190815260200160002060009054906101000a900473ffffffffffffffffffffffffffffffffffffffff169050919050565b8173ffffffffffffffffffffffffffffffffffffffff168373ffffffffffffffffffffffffffffffffffffffff1603611845576040517f08c379a000000000000000000000000000000000000000000000000000000000815260040161183c9061320d565b60405180910390fd5b80600560008573ffffffffffffffffffffffffffffffffffffffff1673ffffffffffffffffffffffffffffffffffffffff16815260200190815260200160002060008473ffffffffffffffffffffffffffffffffffffffff1673ffffffffffffffffffffffffffffffffffffffff16815260200190815260200160002060006101000a81548160ff0219169083151502179055508173ffffffffffffffffffffffffffffffffffffffff168373ffffffffffffffffffffffffffffffffffffffff167f17307eab39ab6107e8899845ad3d59bd9653f200f220920489ca2b5937696c3183604051611936919061237e565b60405180910390a3505050565b61194e8484846114a1565b61195a84848484611ea8565b611999576040517f08c379a00000000000000000000000000000000000000000000000000000000081526004016119909061329f565b60405180910390fd5b50505050565b60008073ffffffffffffffffffffffffffffffffffffffff166119c18361179a565b73ffffffffffffffffffffffffffffffffffffffff1614159050919050565b611a7a8383836040516024016119f8939291906132bf565b6040516020818303038152906040527f1c7ec448000000000000000000000000000000000000000000000000000000007bffffffffffffffffffffffffffffffffffffffffffffffffffffffff19166020820180517bffffffffffffffffffffffffffffffffffffffffffffffffffffffff8381831617835250505050611d53565b505050565b606060008251905060008103611aa75760405180602001604052806000815250915050611c11565b60006003600283611ab8919061332c565b611ac2919061338f565b6004611ace91906133c0565b90506000602082611adf919061332c565b67ffffffffffffffff811115611af857611af7612776565b5b6040519080825280601f01601f191660200182016040528015611b2a5781602001600182028036833780820191505090505b50905060006040518060600160405280604081526020016139e7604091399050600181016020830160005b86811015611bce5760038101905062ffffff818a015116603f8160121c168401518060081b905060ff603f83600c1c1686015116810190508060081b905060ff603f8360061c1686015116810190508060081b905060ff603f831686015116810190508060e01b90508084526004840193505050611b55565b506003860660018114611be85760028114611bf857611c03565b613d3d60f01b6002830352611c03565b603d60f81b60018303525b508484525050819450505050505b919050565b611cae8282604051602401611c2c929190613402565b6040516020818303038152906040527f4b5c4277000000000000000000000000000000000000000000000000000000007bffffffffffffffffffffffffffffffffffffffffffffffffffffffff19166020820180517bffffffffffffffffffffffffffffffffffffffffffffffffffffffff8381831617835250505050611d53565b5050565b611ccc82826040518060200160405280600081525061202f565b5050565b611cd98261199f565b611d18576040517f08c379a0000000000000000000000000000000000000000000000000000000008152600401611d0f906134ab565b60405180910390fd5b80600660008481526020019081526020016000209081611d389190613677565b505050565b6001816000016000828254019250508190555050565b60008151905060006a636f6e736f6c652e6c6f679050602083016000808483855afa5050505050565b6001811115611e9c57600073ffffffffffffffffffffffffffffffffffffffff168473ffffffffffffffffffffffffffffffffffffffff1614611e105780600360008673ffffffffffffffffffffffffffffffffffffffff1673ffffffffffffffffffffffffffffffffffffffff1681526020019081526020016000206000828254611e089190613749565b925050819055505b600073ffffffffffffffffffffffffffffffffffffffff168373ffffffffffffffffffffffffffffffffffffffff1614611e9b5780600360008573ffffffffffffffffffffffffffffffffffffffff1673ffffffffffffffffffffffffffffffffffffffff1681526020019081526020016000206000828254611e93919061332c565b925050819055505b5b50505050565b50505050565b6000611ec98473ffffffffffffffffffffffffffffffffffffffff1661208a565b15612022578373ffffffffffffffffffffffffffffffffffffffff1663150b7a02611ef261134b565b8786866040518563ffffffff1660e01b8152600401611f1494939291906137d2565b6020604051808303816000875af1925050508015611f5057506040513d601f19601f82011682018060405250810190611f4d9190613833565b60015b611fd2573d8060008114611f80576040519150601f19603f3d011682016040523d82523d6000602084013e611f85565b606091505b506000815103611fca576040517f08c379a0000000000000000000000000000000000000000000000000000000008152600401611fc19061329f565b60405180910390fd5b805181602001fd5b63150b7a0260e01b7bffffffffffffffffffffffffffffffffffffffffffffffffffffffff1916817bffffffffffffffffffffffffffffffffffffffffffffffffffffffff191614915050612027565b600190505b949350505050565b61203983836120ad565b6120466000848484611ea8565b612085576040517f08c379a000000000000000000000000000000000000000000000000000000000815260040161207c9061329f565b60405180910390fd5b505050565b6000808273ffffffffffffffffffffffffffffffffffffffff163b119050919050565b600073ffffffffffffffffffffffffffffffffffffffff168273ffffffffffffffffffffffffffffffffffffffff160361211c576040517f08c379a0000000000000000000000000000000000000000000000000000000008152600401612113906138ac565b60405180910390fd5b6121258161199f565b15612165576040517f08c379a000000000000000000000000000000000000000000000000000000000815260040161215c90613918565b60405180910390fd5b612173600083836001611d7c565b61217c8161199f565b156121bc576040517f08c379a00000000000000000000000000000000000000000000000000000000081526004016121b390613918565b60405180910390fd5b6001600360008473ffffffffffffffffffffffffffffffffffffffff1673ffffffffffffffffffffffffffffffffffffffff16815260200190815260200160002060008282540192505081905550816002600083815260200190815260200160002060006101000a81548173ffffffffffffffffffffffffffffffffffffffff021916908373ffffffffffffffffffffffffffffffffffffffff160217905550808273ffffffffffffffffffffffffffffffffffffffff16600073ffffffffffffffffffffffffffffffffffffffff167fddf252ad1be2c89b69c2b068fc378daa952ba7f163c4a11628f55a4df523b3ef60405160405180910390a46122c6600083836001611ea2565b5050565b6000604051905090565b600080fd5b600080fd5b60007fffffffff0000000000000000000000000000000000000000000000000000000082169050919050565b612313816122de565b811461231e57600080fd5b50565b6000813590506123308161230a565b92915050565b60006020828403121561234c5761234b6122d4565b5b600061235a84828501612321565b91505092915050565b60008115159050919050565b61237881612363565b82525050565b6000602082019050612393600083018461236f565b92915050565b600081519050919050565b600082825260208201905092915050565b60005b838110156123d35780820151818401526020810190506123b8565b60008484015250505050565b6000601f19601f8301169050919050565b60006123fb82612399565b61240581856123a4565b93506124158185602086016123b5565b61241e816123df565b840191505092915050565b6000602082019050818103600083015261244381846123f0565b905092915050565b6000819050919050565b61245e8161244b565b811461246957600080fd5b50565b60008135905061247b81612455565b92915050565b600060208284031215612497576124966122d4565b5b60006124a58482850161246c565b91505092915050565b600073ffffffffffffffffffffffffffffffffffffffff82169050919050565b60006124d9826124ae565b9050919050565b6124e9816124ce565b82525050565b600060208201905061250460008301846124e0565b92915050565b612513816124ce565b811461251e57600080fd5b50565b6000813590506125308161250a565b92915050565b6000806040838503121561254d5761254c6122d4565b5b600061255b85828601612521565b925050602061256c8582860161246c565b9150509250929050565b61257f8161244b565b82525050565b600060208201905061259a6000830184612576565b92915050565b6000806000606084860312156125b9576125b86122d4565b5b60006125c786828701612521565b93505060206125d886828701612521565b92505060406125e98682870161246c565b9150509250925092565b600081519050919050565b600082825260208201905092915050565b6000819050602082019050919050565b6126288161244b565b82525050565b600061263a838361261f565b60208301905092915050565b6000602082019050919050565b600061265e826125f3565b61266881856125fe565b93506126738361260f565b8060005b838110156126a457815161268b888261262e565b975061269683612646565b925050600181019050612677565b5085935050505092915050565b600060208201905081810360008301526126cb8184612653565b905092915050565b6000602082840312156126e9576126e86122d4565b5b60006126f784828501612521565b91505092915050565b61270981612363565b811461271457600080fd5b50565b60008135905061272681612700565b92915050565b60008060408385031215612743576127426122d4565b5b600061275185828601612521565b925050602061276285828601612717565b9150509250929050565b600080fd5b600080fd5b7f4e487b7100000000000000000000000000000000000000000000000000000000600052604160045260246000fd5b6127ae826123df565b810181811067ffffffffffffffff821117156127cd576127cc612776565b5b80604052505050565b60006127e06122ca565b90506127ec82826127a5565b919050565b600067ffffffffffffffff82111561280c5761280b612776565b5b612815826123df565b9050602081019050919050565b82818337600083830152505050565b600061284461283f846127f1565b6127d6565b9050828152602081018484840111156128605761285f612771565b5b61286b848285612822565b509392505050565b600082601f8301126128885761288761276c565b5b8135612898848260208601612831565b91505092915050565b600080600080608085870312156128bb576128ba6122d4565b5b60006128c987828801612521565b94505060206128da87828801612521565b93505060406128eb8782880161246c565b925050606085013567ffffffffffffffff81111561290c5761290b6122d9565b5b61291887828801612873565b91505092959194509250565b6000806040838503121561293b5761293a6122d4565b5b600061294985828601612521565b925050602061295a85828601612521565b9150509250929050565b600067ffffffffffffffff82111561297f5761297e612776565b5b612988826123df565b9050602081019050919050565b60006129a86129a384612964565b6127d6565b9050828152602081018484840111156129c4576129c3612771565b5b6129cf848285612822565b509392505050565b600082601f8301126129ec576129eb61276c565b5b81356129fc848260208601612995565b91505092915050565b60008060008060808587031215612a1f57612a1e6122d4565b5b6000612a2d8782880161246c565b945050602085013567ffffffffffffffff811115612a4e57612a4d6122d9565b5b612a5a878288016129d7565b935050604085013567ffffffffffffffff811115612a7b57612a7a6122d9565b5b612a87878288016129d7565b925050606085013567ffffffffffffffff811115612aa857612aa76122d9565b5b612ab4878288016129d7565b91505092959194509250565b7f4e487b7100000000000000000000000000000000000000000000000000000000600052602260045260246000fd5b60006002820490506001821680612b0757607f821691505b602082108103612b1a57612b19612ac0565b5b50919050565b7f4552433732313a20617070726f76616c20746f2063757272656e74206f776e6560008201527f7200000000000000000000000000000000000000000000000000000000000000602082015250565b6000612b7c6021836123a4565b9150612b8782612b20565b604082019050919050565b60006020820190508181036000830152612bab81612b6f565b9050919050565b7f4552433732313a20617070726f76652063616c6c6572206973206e6f7420746f60008201527f6b656e206f776e6572206f7220617070726f76656420666f7220616c6c000000602082015250565b6000612c0e603d836123a4565b9150612c1982612bb2565b604082019050919050565b60006020820190508181036000830152612c3d81612c01565b9050919050565b7f4552433732313a2063616c6c6572206973206e6f7420746f6b656e206f776e6560008201527f72206f7220617070726f76656400000000000000000000000000000000000000602082015250565b6000612ca0602d836123a4565b9150612cab82612c44565b604082019050919050565b60006020820190508181036000830152612ccf81612c93565b9050919050565b7f4552433732313a20696e76616c696420746f6b656e2049440000000000000000600082015250565b6000612d0c6018836123a4565b9150612d1782612cd6565b602082019050919050565b60006020820190508181036000830152612d3b81612cff565b9050919050565b7f4552433732313a2061646472657373207a65726f206973206e6f74206120766160008201527f6c6964206f776e65720000000000000000000000000000000000000000000000602082015250565b6000612d9e6029836123a4565b9150612da982612d42565b604082019050919050565b60006020820190508181036000830152612dcd81612d91565b9050919050565b7f496e73756666696369656e7420616d6f756e74206f6620457468657221204b6960008201527f6e646c7920746f702075702e0000000000000000000000000000000000000000602082015250565b6000612e30602c836123a4565b9150612e3b82612dd4565b604082019050919050565b60006020820190508181036000830152612e5f81612e23565b9050919050565b600081905092915050565b7f7b226e616d65223a202200000000000000000000000000000000000000000000600082015250565b6000612ea7600a83612e66565b9150612eb282612e71565b600a82019050919050565b6000612ec882612399565b612ed28185612e66565b9350612ee28185602086016123b5565b80840191505092915050565b7f222c20226465736372697074696f6e223a202200000000000000000000000000600082015250565b6000612f24601383612e66565b9150612f2f82612eee565b601382019050919050565b7f222c2022696d616765223a202200000000000000000000000000000000000000600082015250565b6000612f70600d83612e66565b9150612f7b82612f3a565b600d82019050919050565b7f227d000000000000000000000000000000000000000000000000000000000000600082015250565b6000612fbc600283612e66565b9150612fc782612f86565b600282019050919050565b6000612fdd82612e9a565b9150612fe98286612ebd565b9150612ff482612f17565b91506130008285612ebd565b915061300b82612f63565b91506130178284612ebd565b915061302282612faf565b9150819050949350505050565b7f646174613a6170706c69636174696f6e2f6a736f6e3b6261736536342c000000600082015250565b6000613065601d83612e66565b91506130708261302f565b601d82019050919050565b600061308682613058565b91506130928284612ebd565b915081905092915050565b7f4552433732313a207472616e736665722066726f6d20696e636f72726563742060008201527f6f776e6572000000000000000000000000000000000000000000000000000000602082015250565b60006130f96025836123a4565b91506131048261309d565b604082019050919050565b60006020820190508181036000830152613128816130ec565b9050919050565b7f4552433732313a207472616e7366657220746f20746865207a65726f2061646460008201527f7265737300000000000000000000000000000000000000000000000000000000602082015250565b600061318b6024836123a4565b91506131968261312f565b604082019050919050565b600060208201905081810360008301526131ba8161317e565b9050919050565b7f4552433732313a20617070726f766520746f2063616c6c657200000000000000600082015250565b60006131f76019836123a4565b9150613202826131c1565b602082019050919050565b60006020820190508181036000830152613226816131ea565b9050919050565b7f4552433732313a207472616e7366657220746f206e6f6e20455243373231526560008201527f63656976657220696d706c656d656e7465720000000000000000000000000000602082015250565b60006132896032836123a4565b91506132948261322d565b604082019050919050565b600060208201905081810360008301526132b88161327c565b9050919050565b600060608201905081810360008301526132d981866123f0565b90506132e86020830185612576565b6132f560408301846124e0565b949350505050565b7f4e487b7100000000000000000000000000000000000000000000000000000000600052601160045260246000fd5b60006133378261244b565b91506133428361244b565b925082820190508082111561335a576133596132fd565b5b92915050565b7f4e487b7100000000000000000000000000000000000000000000000000000000600052601260045260246000fd5b600061339a8261244b565b91506133a58361244b565b9250826133b5576133b4613360565b5b828204905092915050565b60006133cb8261244b565b91506133d68361244b565b92508282026133e48161244b565b915082820484148315176133fb576133fa6132fd565b5b5092915050565b6000604082019050818103600083015261341c81856123f0565b9050818103602083015261343081846123f0565b90509392505050565b7f45524337323155524953746f726167653a2055524920736574206f66206e6f6e60008201527f6578697374656e7420746f6b656e000000000000000000000000000000000000602082015250565b6000613495602e836123a4565b91506134a082613439565b604082019050919050565b600060208201905081810360008301526134c481613488565b9050919050565b60008190508160005260206000209050919050565b60006020601f8301049050919050565b600082821b905092915050565b60006008830261352d7fffffffffffffffffffffffffffffffffffffffffffffffffffffffffffffffff826134f0565b61353786836134f0565b95508019841693508086168417925050509392505050565b6000819050919050565b600061357461356f61356a8461244b565b61354f565b61244b565b9050919050565b6000819050919050565b61358e83613559565b6135a261359a8261357b565b8484546134fd565b825550505050565b600090565b6135b76135aa565b6135c2818484613585565b505050565b5b818110156135e6576135db6000826135af565b6001810190506135c8565b5050565b601f82111561362b576135fc816134cb565b613605846134e0565b81016020851015613614578190505b613628613620856134e0565b8301826135c7565b50505b505050565b600082821c905092915050565b600061364e60001984600802613630565b1980831691505092915050565b6000613667838361363d565b9150826002028217905092915050565b61368082612399565b67ffffffffffffffff81111561369957613698612776565b5b6136a38254612aef565b6136ae8282856135ea565b600060209050601f8311600181146136e157600084156136cf578287015190505b6136d9858261365b565b865550613741565b601f1984166136ef866134cb565b60005b82811015613717578489015182556001820191506020850194506020810190506136f2565b868310156137345784890151613730601f89168261363d565b8355505b6001600288020188555050505b505050505050565b60006137548261244b565b915061375f8361244b565b9250828203905081811115613777576137766132fd565b5b92915050565b600081519050919050565b600082825260208201905092915050565b60006137a48261377d565b6137ae8185613788565b93506137be8185602086016123b5565b6137c7816123df565b840191505092915050565b60006080820190506137e760008301876124e0565b6137f460208301866124e0565b6138016040830185612576565b81810360608301526138138184613799565b905095945050505050565b60008151905061382d8161230a565b92915050565b600060208284031215613849576138486122d4565b5b60006138578482850161381e565b91505092915050565b7f4552433732313a206d696e7420746f20746865207a65726f2061646472657373600082015250565b60006138966020836123a4565b91506138a182613860565b602082019050919050565b600060208201905081810360008301526138c581613889565b9050919050565b7f4552433732313a20746f6b656e20616c7265616479206d696e74656400000000600082015250565b6000613902601c836123a4565b915061390d826138cc565b602082019050919050565b60006020820190508181036000830152613931816138f5565b905091905056fe68747470733a2f2f7777772e6a736f6e6b65657065722e636f6d2f622f4847375768747470733a2f2f7777772e6a736f6e6b65657065722e636f6d2f622f3745383768747470733a2f2f7777772e6a736f6e6b65657065722e636f6d2f622f43374f5368747470733a2f2f7777772e6a736f6e6b65657065722e636f6d2f622f58375653416e204e46542077697468204944206f6620257320686173206265656e206d696e74656420746f2025734142434445464748494a4b4c4d4e4f505152535455565758595a6162636465666768696a6b6c6d6e6f707172737475767778797a303132333435363738392b2fa26469706673582212200ed5301a684189ee590d2e5ad51c47fe3b6ae39209a747b5130f66b37bceefa964736f6c63430008110033",
  "linkReferences": {},
  "deployedLinkReferences": {}
}