{
  "_format": "hh-sol-artifact-1",
  "contractName": "MoensNFTs",
  "sourceName": "contracts/MoensNFTs.sol",
  "abi": [
    {
      "inputs": [],
      "stateMutability": "nonpayable",
      "type": "constructor"
    },
    {
      "anonymous": false,
      "inputs": [
        {
          "indexed": true,
          "internalType": "address",
          "name": "owner",
          "type": "address"
        },
        {
          "indexed": true,
          "internalType": "address",
          "name": "approved",
          "type": "address"
        },
        {
          "indexed": true,
          "internalType": "uint256",
          "name": "tokenId",
          "type": "uint256"
        }
      ],
      "name": "Approval",
      "type": "event"
    },
    {
      "anonymous": false,
      "inputs": [
        {
          "indexed": true,
          "internalType": "address",
          "name": "owner",
          "type": "address"
        },
        {
          "indexed": true,
          "internalType": "address",
          "name": "operator",
          "type": "address"
        },
        {
          "indexed": false,
          "internalType": "bool",
          "name": "approved",
          "type": "bool"
        }
      ],
      "name": "ApprovalForAll",
      "type": "event"
    },
    {
      "anonymous": false,
      "inputs": [
        {
          "indexed": true,
          "internalType": "address",
          "name": "from",
          "type": "address"
        },
        {
          "indexed": true,
          "internalType": "address",
          "name": "to",
          "type": "address"
        },
        {
          "indexed": true,
          "internalType": "uint256",
          "name": "tokenId",
          "type": "uint256"
        }
      ],
      "name": "Transfer",
      "type": "event"
    },
    {
      "inputs": [],
      "name": "_price",
      "outputs": [
        {
          "internalType": "uint256",
          "name": "",
          "type": "uint256"
        }
      ],
      "stateMutability": "view",
      "type": "function"
    },
    {
      "inputs": [
        {
          "internalType": "address",
          "name": "to",
          "type": "address"
        },
        {
          "internalType": "uint256",
          "name": "tokenId",
          "type": "uint256"
        }
      ],
      "name": "approve",
      "outputs": [],
      "stateMutability": "nonpayable",
      "type": "function"
    },
    {
      "inputs": [
        {
          "internalType": "address",
          "name": "owner",
          "type": "address"
        }
      ],
      "name": "balanceOf",
      "outputs": [
        {
          "internalType": "uint256",
          "name": "",
          "type": "uint256"
        }
      ],
      "stateMutability": "view",
      "type": "function"
    },
    {
      "inputs": [
        {
          "internalType": "uint256",
          "name": "tokenId",
          "type": "uint256"
        }
      ],
      "name": "getApproved",
      "outputs": [
        {
          "internalType": "address",
          "name": "",
          "type": "address"
        }
      ],
      "stateMutability": "view",
      "type": "function"
    },
    {
      "inputs": [
        {
          "internalType": "address",
          "name": "owner",
          "type": "address"
        },
        {
          "internalType": "address",
          "name": "operator",
          "type": "address"
        }
      ],
      "name": "isApprovedForAll",
      "outputs": [
        {
          "internalType": "bool",
          "name": "",
          "type": "bool"
        }
      ],
      "stateMutability": "view",
      "type": "function"
    },
    {
      "inputs": [
        {
          "internalType": "uint256",
          "name": "id",
          "type": "uint256"
        },
        {
          "internalType": "string",
          "name": "name",
          "type": "string"
        },
        {
          "internalType": "string",
          "name": "description",
          "type": "string"
        },
        {
          "internalType": "string",
          "name": "image",
          "type": "string"
        }
      ],
      "name": "mintNft",
      "outputs": [],
      "stateMutability": "payable",
      "type": "function"
    },
    {
      "inputs": [],
      "name": "name",
      "outputs": [
        {
          "internalType": "string",
          "name": "",
          "type": "string"
        }
      ],
      "stateMutability": "view",
      "type": "function"
    },
    {
      "inputs": [
        {
          "internalType": "uint256",
          "name": "tokenId",
          "type": "uint256"
        }
      ],
      "name": "ownerOf",
      "outputs": [
        {
          "internalType": "address",
          "name": "",
          "type": "address"
        }
      ],
      "stateMutability": "view",
      "type": "function"
    },
    {
      "inputs": [
        {
          "internalType": "address",
          "name": "from",
          "type": "address"
        },
        {
          "internalType": "address",
          "name": "to",
          "type": "address"
        },
        {
          "internalType": "uint256",
          "name": "tokenId",
          "type": "uint256"
        }
      ],
      "name": "safeTransferFrom",
      "outputs": [],
      "stateMutability": "nonpayable",
      "type": "function"
    },
    {
      "inputs": [
        {
          "internalType": "address",
          "name": "from",
          "type": "address"
        },
        {
          "internalType": "address",
          "name": "to",
          "type": "address"
        },
        {
          "internalType": "uint256",
          "name": "tokenId",
          "type": "uint256"
        },
        {
          "internalType": "bytes",
          "name": "data",
          "type": "bytes"
        }
      ],
      "name": "safeTransferFrom",
      "outputs": [],
      "stateMutability": "nonpayable",
      "type": "function"
    },
    {
      "inputs": [
        {
          "internalType": "address",
          "name": "operator",
          "type": "address"
        },
        {
          "internalType": "bool",
          "name": "approved",
          "type": "bool"
        }
      ],
      "name": "setApprovalForAll",
      "outputs": [],
      "stateMutability": "nonpayable",
      "type": "function"
    },
    {
      "inputs": [
        {
          "internalType": "bytes4",
          "name": "interfaceId",
          "type": "bytes4"
        }
      ],
      "name": "supportsInterface",
      "outputs": [
        {
          "internalType": "bool",
          "name": "",
          "type": "bool"
        }
      ],
      "stateMutability": "view",
      "type": "function"
    },
    {
      "inputs": [],
      "name": "symbol",
      "outputs": [
        {
          "internalType": "string",
          "name": "",
          "type": "string"
        }
      ],
      "stateMutability": "view",
      "type": "function"
    },
    {
      "inputs": [
        {
          "internalType": "uint256",
          "name": "_tokenId",
          "type": "uint256"
        }
      ],
      "name": "tokenURI",
      "outputs": [
        {
          "internalType": "string",
          "name": "",
          "type": "string"
        }
      ],
      "stateMutability": "view",
      "type": "function"
    },
    {
      "inputs": [
        {
          "internalType": "address",
          "name": "from",
          "type": "address"
        },
        {
          "internalType": "address",
          "name": "to",
          "type": "address"
        },
        {
          "internalType": "uint256",
          "name": "tokenId",
          "type": "uint256"
        }
      ],
      "name": "transferFrom",
      "outputs": [],
      "stateMutability": "nonpayable",
      "type": "function"
    }
  ],
  "bytecode": "0x6080604052662386f26fc100006008553480156200001c57600080fd5b506040518060400160405280600881526020017f4d6f656e734e46540000000000000000000000000000000000000000000000008152506040518060400160405280600381526020017f4d4654000000000000000000000000000000000000000000000000000000000081525081600090816200009a919062000446565b508060019081620000ac919062000446565b505050620000fa6040518060400160405280602081526020017f4920616d2061626f757420746f2063726561746520736f6d65204e46547321218152506200010060201b620010bd1760201c565b620005e0565b620001a081604051602401620001179190620005bc565b6040516020818303038152906040527f41304fac000000000000000000000000000000000000000000000000000000007bffffffffffffffffffffffffffffffffffffffffffffffffffffffff19166020820180517bffffffffffffffffffffffffffffffffffffffffffffffffffffffff8381831617835250505050620001a360201b60201c565b50565b60008151905060006a636f6e736f6c652e6c6f679050602083016000808483855afa5050505050565b600081519050919050565b7f4e487b7100000000000000000000000000000000000000000000000000000000600052604160045260246000fd5b7f4e487b7100000000000000000000000000000000000000000000000000000000600052602260045260246000fd5b600060028204905060018216806200024e57607f821691505b60208210810362000264576200026362000206565b5b50919050565b60008190508160005260206000209050919050565b60006020601f8301049050919050565b600082821b905092915050565b600060088302620002ce7fffffffffffffffffffffffffffffffffffffffffffffffffffffffffffffffff826200028f565b620002da86836200028f565b95508019841693508086168417925050509392505050565b6000819050919050565b6000819050919050565b600062000327620003216200031b84620002f2565b620002fc565b620002f2565b9050919050565b6000819050919050565b620003438362000306565b6200035b62000352826200032e565b8484546200029c565b825550505050565b600090565b6200037262000363565b6200037f81848462000338565b505050565b5b81811015620003a7576200039b60008262000368565b60018101905062000385565b5050565b601f821115620003f657620003c0816200026a565b620003cb846200027f565b81016020851015620003db578190505b620003f3620003ea856200027f565b83018262000384565b50505b505050565b600082821c905092915050565b60006200041b60001984600802620003fb565b1980831691505092915050565b600062000436838362000408565b9150826002028217905092915050565b6200045182620001cc565b67ffffffffffffffff8111156200046d576200046c620001d7565b5b62000479825462000235565b62000486828285620003ab565b600060209050601f831160018114620004be5760008415620004a9578287015190505b620004b5858262000428565b86555062000525565b601f198416620004ce866200026a565b60005b82811015620004f857848901518255600182019150602085019450602081019050620004d1565b8683101562000518578489015162000514601f89168262000408565b8355505b6001600288020188555050505b505050505050565b600082825260208201905092915050565b60005b838110156200055e57808201518184015260208101905062000541565b60008484015250505050565b6000601f19601f8301169050919050565b60006200058882620001cc565b6200059481856200052d565b9350620005a68185602086016200053e565b620005b1816200056a565b840191505092915050565b60006020820190508181036000830152620005d881846200057b565b905092915050565b61385d80620005f06000396000f3fe6080604052600436106100e85760003560e01c80636352211e1161008a578063b88d4fde11610059578063b88d4fde14610306578063c87b56dd1461032f578063e985e9c51461036c578063f5f26ebd146103a9576100e8565b80636352211e1461023857806370a082311461027557806395d89b41146102b2578063a22cb465146102dd576100e8565b8063095ea7b3116100c6578063095ea7b314610192578063235b6ea1146101bb57806323b872dd146101e657806342842e0e1461020f576100e8565b806301ffc9a7146100ed57806306fdde031461012a578063081812fc14610155575b600080fd5b3480156100f957600080fd5b50610114600480360381019061010f91906121f6565b6103c5565b604051610121919061223e565b60405180910390f35b34801561013657600080fd5b5061013f6104a7565b60405161014c91906122e9565b60405180910390f35b34801561016157600080fd5b5061017c60048036038101906101779190612341565b610539565b60405161018991906123af565b60405180910390f35b34801561019e57600080fd5b506101b960048036038101906101b491906123f6565b61057f565b005b3480156101c757600080fd5b506101d0610696565b6040516101dd9190612445565b60405180910390f35b3480156101f257600080fd5b5061020d60048036038101906102089190612460565b61069c565b005b34801561021b57600080fd5b5061023660048036038101906102319190612460565b6106fc565b005b34801561024457600080fd5b5061025f600480360381019061025a9190612341565b61071c565b60405161026c91906123af565b60405180910390f35b34801561028157600080fd5b5061029c600480360381019061029791906124b3565b6107a2565b6040516102a99190612445565b60405180910390f35b3480156102be57600080fd5b506102c7610859565b6040516102d491906122e9565b60405180910390f35b3480156102e957600080fd5b5061030460048036038101906102ff919061250c565b6108eb565b005b34801561031257600080fd5b5061032d60048036038101906103289190612681565b610901565b005b34801561033b57600080fd5b5061035660048036038101906103519190612341565b610963565b60405161036391906122e9565b60405180910390f35b34801561037857600080fd5b50610393600480360381019061038e9190612704565b610f13565b6040516103a0919061223e565b60405180910390f35b6103c360048036038101906103be91906127e5565b610fa7565b005b60007f80ac58cd000000000000000000000000000000000000000000000000000000007bffffffffffffffffffffffffffffffffffffffffffffffffffffffff1916827bffffffffffffffffffffffffffffffffffffffffffffffffffffffff1916148061049057507f5b5e139f000000000000000000000000000000000000000000000000000000007bffffffffffffffffffffffffffffffffffffffffffffffffffffffff1916827bffffffffffffffffffffffffffffffffffffffffffffffffffffffff1916145b806104a0575061049f82611156565b5b9050919050565b6060600080546104b6906128cf565b80601f01602080910402602001604051908101604052809291908181526020018280546104e2906128cf565b801561052f5780601f106105045761010080835404028352916020019161052f565b820191906000526020600020905b81548152906001019060200180831161051257829003601f168201915b5050505050905090565b6000610544826111c0565b6004600083815260200190815260200160002060009054906101000a900473ffffffffffffffffffffffffffffffffffffffff169050919050565b600061058a8261071c565b90508073ffffffffffffffffffffffffffffffffffffffff168373ffffffffffffffffffffffffffffffffffffffff16036105fa576040517f08c379a00000000000000000000000000000000000000000000000000000000081526004016105f190612972565b60405180910390fd5b8073ffffffffffffffffffffffffffffffffffffffff1661061961120b565b73ffffffffffffffffffffffffffffffffffffffff16148061064857506106478161064261120b565b610f13565b5b610687576040517f08c379a000000000000000000000000000000000000000000000000000000000815260040161067e90612a04565b60405180910390fd5b6106918383611213565b505050565b60085481565b6106ad6106a761120b565b826112cc565b6106ec576040517f08c379a00000000000000000000000000000000000000000000000000000000081526004016106e390612a96565b60405180910390fd5b6106f7838383611361565b505050565b61071783838360405180602001604052806000815250610901565b505050565b6000806107288361165a565b9050600073ffffffffffffffffffffffffffffffffffffffff168173ffffffffffffffffffffffffffffffffffffffff1603610799576040517f08c379a000000000000000000000000000000000000000000000000000000000815260040161079090612b02565b60405180910390fd5b80915050919050565b60008073ffffffffffffffffffffffffffffffffffffffff168273ffffffffffffffffffffffffffffffffffffffff1603610812576040517f08c379a000000000000000000000000000000000000000000000000000000000815260040161080990612b94565b60405180910390fd5b600360008373ffffffffffffffffffffffffffffffffffffffff1673ffffffffffffffffffffffffffffffffffffffff168152602001908152602001600020549050919050565b606060018054610868906128cf565b80601f0160208091040260200160405190810160405280929190818152602001828054610894906128cf565b80156108e15780601f106108b6576101008083540402835291602001916108e1565b820191906000526020600020905b8154815290600101906020018083116108c457829003601f168201915b5050505050905090565b6108fd6108f661120b565b8383611697565b5050565b61091261090c61120b565b836112cc565b610951576040517f08c379a000000000000000000000000000000000000000000000000000000000815260040161094890612a96565b60405180910390fd5b61095d84848484611803565b50505050565b606061096e8261185f565b61097757600080fd5b6060600083036109a15760405180606001604052806021815260200161379d602191399050610ee7565b600183036109c95760405180606001604052806021815260200161373a602191399050610ee6565b600283036109f157604051806060016040528060218152602001613719602191399050610ee5565b60038303610a195760405180606001604052806021815260200161377c602191399050610ee4565b60048303610a415760405180606001604052806021815260200161375b602191399050610ee3565b60058303610a86576040518060400160405280601d81526020017f68747470733a2f2f6a736f6e6b65657065722e636f6d2f622f515955300000008152509050610ee2565b60068303610acb576040518060400160405280601d81526020017f68747470733a2f2f6a736f6e6b65657065722e636f6d2f622f523139360000008152509050610ee1565b60078303610b10576040518060400160405280601d81526020017f68747470733a2f2f6a736f6e6b65657065722e636f6d2f622f43304f440000008152509050610ee0565b60088303610b55576040518060400160405280601d81526020017f68747470733a2f2f6a736f6e6b65657065722e636f6d2f622f4c4f475a0000008152509050610edf565b60098303610b9a576040518060400160405280601e81526020017f2068747470733a2f2f6a736f6e6b65657065722e636f6d2f622f4558503500008152509050610ede565b600a8303610bdf576040518060400160405280601d81526020017f68747470733a2f2f6a736f6e6b65657065722e636f6d2f622f4b42474f0000008152509050610edd565b600b8303610c24576040518060400160405280601d81526020017f68747470733a2f2f6a736f6e6b65657065722e636f6d2f622f314e38480000008152509050610edc565b600c8303610c69576040518060400160405280601d81526020017f68747470733a2f2f6a736f6e6b65657065722e636f6d2f622f35514e340000008152509050610edb565b600d8303610cae576040518060400160405280601d81526020017f68747470733a2f2f6a736f6e6b65657065722e636f6d2f622f36424e5a0000008152509050610eda565b600e8303610cf3576040518060400160405280601d81526020017f68747470733a2f2f6a736f6e6b65657065722e636f6d2f622f4b3547440000008152509050610ed9565b600f8303610d38576040518060400160405280601d81526020017f68747470733a2f2f6a736f6e6b65657065722e636f6d2f622f334f57420000008152509050610ed8565b60108303610d7d576040518060400160405280601d81526020017f68747470733a2f2f6a736f6e6b65657065722e636f6d2f622f474f31380000008152509050610ed7565b60118303610dc2576040518060400160405280601d81526020017f68747470733a2f2f6a736f6e6b65657065722e636f6d2f622f544b38390000008152509050610ed6565b60128303610e07576040518060400160405280601d81526020017f68747470733a2f2f6a736f6e6b65657065722e636f6d2f622f54545a460000008152509050610ed5565b60138303610e4c576040518060400160405280601d81526020017f68747470733a2f2f6a736f6e6b65657065722e636f6d2f622f554d4e420000008152509050610ed4565b60148303610e91576040518060400160405280601d81526020017f68747470733a2f2f6a736f6e6b65657065722e636f6d2f622f41334a4b0000008152509050610ed3565b60158303610ed2576040518060400160405280601d81526020017f68747470733a2f2f6a736f6e6b65657065722e636f6d2f622f3243525100000081525090505b5b5b5b5b5b5b5b5b5b5b5b5b5b5b5b5b5b5b5b5b5b610f0a6040518060600160405280602a81526020016137be602a913984336118a0565b80915050919050565b6000600560008473ffffffffffffffffffffffffffffffffffffffff1673ffffffffffffffffffffffffffffffffffffffff16815260200190815260200160002060008373ffffffffffffffffffffffffffffffffffffffff1673ffffffffffffffffffffffffffffffffffffffff16815260200190815260200160002060009054906101000a900460ff16905092915050565b6000849050600854341015610ff1576040517f08c379a0000000000000000000000000000000000000000000000000000000008152600401610fe890612c26565b60405180910390fd5b600061102785856110018661193f565b60405160200161101393929190612db2565b60405160208183030381529060405261193f565b905060008160405160200161103c9190612e5b565b604051602081830303815290604052905061108c6040518060400160405280601481526020017f46696e616c20746f6b656e205552492069733a2000000000000000000000000081525082611ad6565b6110963384611b72565b61109f83610963565b506110aa8382611b90565b6110b46007611bfd565b50505050505050565b611153816040516024016110d191906122e9565b6040516020818303038152906040527f41304fac000000000000000000000000000000000000000000000000000000007bffffffffffffffffffffffffffffffffffffffffffffffffffffffff19166020820180517bffffffffffffffffffffffffffffffffffffffffffffffffffffffff8381831617835250505050611c13565b50565b60007f01ffc9a7000000000000000000000000000000000000000000000000000000007bffffffffffffffffffffffffffffffffffffffffffffffffffffffff1916827bffffffffffffffffffffffffffffffffffffffffffffffffffffffff1916149050919050565b6111c98161185f565b611208576040517f08c379a00000000000000000000000000000000000000000000000000000000081526004016111ff90612b02565b60405180910390fd5b50565b600033905090565b816004600083815260200190815260200160002060006101000a81548173ffffffffffffffffffffffffffffffffffffffff021916908373ffffffffffffffffffffffffffffffffffffffff160217905550808273ffffffffffffffffffffffffffffffffffffffff166112868361071c565b73ffffffffffffffffffffffffffffffffffffffff167f8c5be1e5ebec7d5bd14f71427d1e84f3dd0314c0f7b2291e5b200ac8c7c3b92560405160405180910390a45050565b6000806112d88361071c565b90508073ffffffffffffffffffffffffffffffffffffffff168473ffffffffffffffffffffffffffffffffffffffff16148061131a57506113198185610f13565b5b8061135857508373ffffffffffffffffffffffffffffffffffffffff1661134084610539565b73ffffffffffffffffffffffffffffffffffffffff16145b91505092915050565b8273ffffffffffffffffffffffffffffffffffffffff166113818261071c565b73ffffffffffffffffffffffffffffffffffffffff16146113d7576040517f08c379a00000000000000000000000000000000000000000000000000000000081526004016113ce90612eef565b60405180910390fd5b600073ffffffffffffffffffffffffffffffffffffffff168273ffffffffffffffffffffffffffffffffffffffff1603611446576040517f08c379a000000000000000000000000000000000000000000000000000000000815260040161143d90612f81565b60405180910390fd5b6114538383836001611c3c565b8273ffffffffffffffffffffffffffffffffffffffff166114738261071c565b73ffffffffffffffffffffffffffffffffffffffff16146114c9576040517f08c379a00000000000000000000000000000000000000000000000000000000081526004016114c090612eef565b60405180910390fd5b6004600082815260200190815260200160002060006101000a81549073ffffffffffffffffffffffffffffffffffffffff02191690556001600360008573ffffffffffffffffffffffffffffffffffffffff1673ffffffffffffffffffffffffffffffffffffffff168152602001908152602001600020600082825403925050819055506001600360008473ffffffffffffffffffffffffffffffffffffffff1673ffffffffffffffffffffffffffffffffffffffff16815260200190815260200160002060008282540192505081905550816002600083815260200190815260200160002060006101000a81548173ffffffffffffffffffffffffffffffffffffffff021916908373ffffffffffffffffffffffffffffffffffffffff160217905550808273ffffffffffffffffffffffffffffffffffffffff168473ffffffffffffffffffffffffffffffffffffffff167fddf252ad1be2c89b69c2b068fc378daa952ba7f163c4a11628f55a4df523b3ef60405160405180910390a46116558383836001611d62565b505050565b60006002600083815260200190815260200160002060009054906101000a900473ffffffffffffffffffffffffffffffffffffffff169050919050565b8173ffffffffffffffffffffffffffffffffffffffff168373ffffffffffffffffffffffffffffffffffffffff1603611705576040517f08c379a00000000000000000000000000000000000000000000000000000000081526004016116fc90612fed565b60405180910390fd5b80600560008573ffffffffffffffffffffffffffffffffffffffff1673ffffffffffffffffffffffffffffffffffffffff16815260200190815260200160002060008473ffffffffffffffffffffffffffffffffffffffff1673ffffffffffffffffffffffffffffffffffffffff16815260200190815260200160002060006101000a81548160ff0219169083151502179055508173ffffffffffffffffffffffffffffffffffffffff168373ffffffffffffffffffffffffffffffffffffffff167f17307eab39ab6107e8899845ad3d59bd9653f200f220920489ca2b5937696c31836040516117f6919061223e565b60405180910390a3505050565b61180e848484611361565b61181a84848484611d68565b611859576040517f08c379a00000000000000000000000000000000000000000000000000000000081526004016118509061307f565b60405180910390fd5b50505050565b60008073ffffffffffffffffffffffffffffffffffffffff166118818361165a565b73ffffffffffffffffffffffffffffffffffffffff1614159050919050565b61193a8383836040516024016118b89392919061309f565b6040516020818303038152906040527f1c7ec448000000000000000000000000000000000000000000000000000000007bffffffffffffffffffffffffffffffffffffffffffffffffffffffff19166020820180517bffffffffffffffffffffffffffffffffffffffffffffffffffffffff8381831617835250505050611c13565b505050565b6060600082519050600081036119675760405180602001604052806000815250915050611ad1565b60006003600283611978919061310c565b611982919061316f565b600461198e91906131a0565b9050600060208261199f919061310c565b67ffffffffffffffff8111156119b8576119b7612556565b5b6040519080825280601f01601f1916602001820160405280156119ea5781602001600182028036833780820191505090505b50905060006040518060600160405280604081526020016137e8604091399050600181016020830160005b86811015611a8e5760038101905062ffffff818a015116603f8160121c168401518060081b905060ff603f83600c1c1686015116810190508060081b905060ff603f8360061c1686015116810190508060081b905060ff603f831686015116810190508060e01b90508084526004840193505050611a15565b506003860660018114611aa85760028114611ab857611ac3565b613d3d60f01b6002830352611ac3565b603d60f81b60018303525b508484525050819450505050505b919050565b611b6e8282604051602401611aec9291906131e2565b6040516020818303038152906040527f4b5c4277000000000000000000000000000000000000000000000000000000007bffffffffffffffffffffffffffffffffffffffffffffffffffffffff19166020820180517bffffffffffffffffffffffffffffffffffffffffffffffffffffffff8381831617835250505050611c13565b5050565b611b8c828260405180602001604052806000815250611eef565b5050565b611b998261185f565b611bd8576040517f08c379a0000000000000000000000000000000000000000000000000000000008152600401611bcf9061328b565b60405180910390fd5b80600660008481526020019081526020016000209081611bf89190613457565b505050565b6001816000016000828254019250508190555050565b60008151905060006a636f6e736f6c652e6c6f679050602083016000808483855afa5050505050565b6001811115611d5c57600073ffffffffffffffffffffffffffffffffffffffff168473ffffffffffffffffffffffffffffffffffffffff1614611cd05780600360008673ffffffffffffffffffffffffffffffffffffffff1673ffffffffffffffffffffffffffffffffffffffff1681526020019081526020016000206000828254611cc89190613529565b925050819055505b600073ffffffffffffffffffffffffffffffffffffffff168373ffffffffffffffffffffffffffffffffffffffff1614611d5b5780600360008573ffffffffffffffffffffffffffffffffffffffff1673ffffffffffffffffffffffffffffffffffffffff1681526020019081526020016000206000828254611d53919061310c565b925050819055505b5b50505050565b50505050565b6000611d898473ffffffffffffffffffffffffffffffffffffffff16611f4a565b15611ee2578373ffffffffffffffffffffffffffffffffffffffff1663150b7a02611db261120b565b8786866040518563ffffffff1660e01b8152600401611dd494939291906135b2565b6020604051808303816000875af1925050508015611e1057506040513d601f19601f82011682018060405250810190611e0d9190613613565b60015b611e92573d8060008114611e40576040519150601f19603f3d011682016040523d82523d6000602084013e611e45565b606091505b506000815103611e8a576040517f08c379a0000000000000000000000000000000000000000000000000000000008152600401611e819061307f565b60405180910390fd5b805181602001fd5b63150b7a0260e01b7bffffffffffffffffffffffffffffffffffffffffffffffffffffffff1916817bffffffffffffffffffffffffffffffffffffffffffffffffffffffff191614915050611ee7565b600190505b949350505050565b611ef98383611f6d565b611f066000848484611d68565b611f45576040517f08c379a0000000000000000000000000000000000000000000000000000000008152600401611f3c9061307f565b60405180910390fd5b505050565b6000808273ffffffffffffffffffffffffffffffffffffffff163b119050919050565b600073ffffffffffffffffffffffffffffffffffffffff168273ffffffffffffffffffffffffffffffffffffffff1603611fdc576040517f08c379a0000000000000000000000000000000000000000000000000000000008152600401611fd39061368c565b60405180910390fd5b611fe58161185f565b15612025576040517f08c379a000000000000000000000000000000000000000000000000000000000815260040161201c906136f8565b60405180910390fd5b612033600083836001611c3c565b61203c8161185f565b1561207c576040517f08c379a0000000000000000000000000000000000000000000000000000000008152600401612073906136f8565b60405180910390fd5b6001600360008473ffffffffffffffffffffffffffffffffffffffff1673ffffffffffffffffffffffffffffffffffffffff16815260200190815260200160002060008282540192505081905550816002600083815260200190815260200160002060006101000a81548173ffffffffffffffffffffffffffffffffffffffff021916908373ffffffffffffffffffffffffffffffffffffffff160217905550808273ffffffffffffffffffffffffffffffffffffffff16600073ffffffffffffffffffffffffffffffffffffffff167fddf252ad1be2c89b69c2b068fc378daa952ba7f163c4a11628f55a4df523b3ef60405160405180910390a4612186600083836001611d62565b5050565b6000604051905090565b600080fd5b600080fd5b60007fffffffff0000000000000000000000000000000000000000000000000000000082169050919050565b6121d38161219e565b81146121de57600080fd5b50565b6000813590506121f0816121ca565b92915050565b60006020828403121561220c5761220b612194565b5b600061221a848285016121e1565b91505092915050565b60008115159050919050565b61223881612223565b82525050565b6000602082019050612253600083018461222f565b92915050565b600081519050919050565b600082825260208201905092915050565b60005b83811015612293578082015181840152602081019050612278565b60008484015250505050565b6000601f19601f8301169050919050565b60006122bb82612259565b6122c58185612264565b93506122d5818560208601612275565b6122de8161229f565b840191505092915050565b6000602082019050818103600083015261230381846122b0565b905092915050565b6000819050919050565b61231e8161230b565b811461232957600080fd5b50565b60008135905061233b81612315565b92915050565b60006020828403121561235757612356612194565b5b60006123658482850161232c565b91505092915050565b600073ffffffffffffffffffffffffffffffffffffffff82169050919050565b60006123998261236e565b9050919050565b6123a98161238e565b82525050565b60006020820190506123c460008301846123a0565b92915050565b6123d38161238e565b81146123de57600080fd5b50565b6000813590506123f0816123ca565b92915050565b6000806040838503121561240d5761240c612194565b5b600061241b858286016123e1565b925050602061242c8582860161232c565b9150509250929050565b61243f8161230b565b82525050565b600060208201905061245a6000830184612436565b92915050565b60008060006060848603121561247957612478612194565b5b6000612487868287016123e1565b9350506020612498868287016123e1565b92505060406124a98682870161232c565b9150509250925092565b6000602082840312156124c9576124c8612194565b5b60006124d7848285016123e1565b91505092915050565b6124e981612223565b81146124f457600080fd5b50565b600081359050612506816124e0565b92915050565b6000806040838503121561252357612522612194565b5b6000612531858286016123e1565b9250506020612542858286016124f7565b9150509250929050565b600080fd5b600080fd5b7f4e487b7100000000000000000000000000000000000000000000000000000000600052604160045260246000fd5b61258e8261229f565b810181811067ffffffffffffffff821117156125ad576125ac612556565b5b80604052505050565b60006125c061218a565b90506125cc8282612585565b919050565b600067ffffffffffffffff8211156125ec576125eb612556565b5b6125f58261229f565b9050602081019050919050565b82818337600083830152505050565b600061262461261f846125d1565b6125b6565b9050828152602081018484840111156126405761263f612551565b5b61264b848285612602565b509392505050565b600082601f8301126126685761266761254c565b5b8135612678848260208601612611565b91505092915050565b6000806000806080858703121561269b5761269a612194565b5b60006126a9878288016123e1565b94505060206126ba878288016123e1565b93505060406126cb8782880161232c565b925050606085013567ffffffffffffffff8111156126ec576126eb612199565b5b6126f887828801612653565b91505092959194509250565b6000806040838503121561271b5761271a612194565b5b6000612729858286016123e1565b925050602061273a858286016123e1565b9150509250929050565b600067ffffffffffffffff82111561275f5761275e612556565b5b6127688261229f565b9050602081019050919050565b600061278861278384612744565b6125b6565b9050828152602081018484840111156127a4576127a3612551565b5b6127af848285612602565b509392505050565b600082601f8301126127cc576127cb61254c565b5b81356127dc848260208601612775565b91505092915050565b600080600080608085870312156127ff576127fe612194565b5b600061280d8782880161232c565b945050602085013567ffffffffffffffff81111561282e5761282d612199565b5b61283a878288016127b7565b935050604085013567ffffffffffffffff81111561285b5761285a612199565b5b612867878288016127b7565b925050606085013567ffffffffffffffff81111561288857612887612199565b5b612894878288016127b7565b91505092959194509250565b7f4e487b7100000000000000000000000000000000000000000000000000000000600052602260045260246000fd5b600060028204905060018216806128e757607f821691505b6020821081036128fa576128f96128a0565b5b50919050565b7f4552433732313a20617070726f76616c20746f2063757272656e74206f776e6560008201527f7200000000000000000000000000000000000000000000000000000000000000602082015250565b600061295c602183612264565b915061296782612900565b604082019050919050565b6000602082019050818103600083015261298b8161294f565b9050919050565b7f4552433732313a20617070726f76652063616c6c6572206973206e6f7420746f60008201527f6b656e206f776e6572206f7220617070726f76656420666f7220616c6c000000602082015250565b60006129ee603d83612264565b91506129f982612992565b604082019050919050565b60006020820190508181036000830152612a1d816129e1565b9050919050565b7f4552433732313a2063616c6c6572206973206e6f7420746f6b656e206f776e6560008201527f72206f7220617070726f76656400000000000000000000000000000000000000602082015250565b6000612a80602d83612264565b9150612a8b82612a24565b604082019050919050565b60006020820190508181036000830152612aaf81612a73565b9050919050565b7f4552433732313a20696e76616c696420746f6b656e2049440000000000000000600082015250565b6000612aec601883612264565b9150612af782612ab6565b602082019050919050565b60006020820190508181036000830152612b1b81612adf565b9050919050565b7f4552433732313a2061646472657373207a65726f206973206e6f74206120766160008201527f6c6964206f776e65720000000000000000000000000000000000000000000000602082015250565b6000612b7e602983612264565b9150612b8982612b22565b604082019050919050565b60006020820190508181036000830152612bad81612b71565b9050919050565b7f496e73756666696369656e7420616d6f756e74206f6620457468657221204b6960008201527f6e646c7920746f702075702e0000000000000000000000000000000000000000602082015250565b6000612c10602c83612264565b9150612c1b82612bb4565b604082019050919050565b60006020820190508181036000830152612c3f81612c03565b9050919050565b600081905092915050565b7f7b226e616d65223a202200000000000000000000000000000000000000000000600082015250565b6000612c87600a83612c46565b9150612c9282612c51565b600a82019050919050565b6000612ca882612259565b612cb28185612c46565b9350612cc2818560208601612275565b80840191505092915050565b7f222c20226465736372697074696f6e223a202200000000000000000000000000600082015250565b6000612d04601383612c46565b9150612d0f82612cce565b601382019050919050565b7f222c2022696d616765223a202200000000000000000000000000000000000000600082015250565b6000612d50600d83612c46565b9150612d5b82612d1a565b600d82019050919050565b7f227d000000000000000000000000000000000000000000000000000000000000600082015250565b6000612d9c600283612c46565b9150612da782612d66565b600282019050919050565b6000612dbd82612c7a565b9150612dc98286612c9d565b9150612dd482612cf7565b9150612de08285612c9d565b9150612deb82612d43565b9150612df78284612c9d565b9150612e0282612d8f565b9150819050949350505050565b7f646174613a6170706c69636174696f6e2f6a736f6e3b6261736536342c000000600082015250565b6000612e45601d83612c46565b9150612e5082612e0f565b601d82019050919050565b6000612e6682612e38565b9150612e728284612c9d565b915081905092915050565b7f4552433732313a207472616e736665722066726f6d20696e636f72726563742060008201527f6f776e6572000000000000000000000000000000000000000000000000000000602082015250565b6000612ed9602583612264565b9150612ee482612e7d565b604082019050919050565b60006020820190508181036000830152612f0881612ecc565b9050919050565b7f4552433732313a207472616e7366657220746f20746865207a65726f2061646460008201527f7265737300000000000000000000000000000000000000000000000000000000602082015250565b6000612f6b602483612264565b9150612f7682612f0f565b604082019050919050565b60006020820190508181036000830152612f9a81612f5e565b9050919050565b7f4552433732313a20617070726f766520746f2063616c6c657200000000000000600082015250565b6000612fd7601983612264565b9150612fe282612fa1565b602082019050919050565b6000602082019050818103600083015261300681612fca565b9050919050565b7f4552433732313a207472616e7366657220746f206e6f6e20455243373231526560008201527f63656976657220696d706c656d656e7465720000000000000000000000000000602082015250565b6000613069603283612264565b91506130748261300d565b604082019050919050565b600060208201905081810360008301526130988161305c565b9050919050565b600060608201905081810360008301526130b981866122b0565b90506130c86020830185612436565b6130d560408301846123a0565b949350505050565b7f4e487b7100000000000000000000000000000000000000000000000000000000600052601160045260246000fd5b60006131178261230b565b91506131228361230b565b925082820190508082111561313a576131396130dd565b5b92915050565b7f4e487b7100000000000000000000000000000000000000000000000000000000600052601260045260246000fd5b600061317a8261230b565b91506131858361230b565b92508261319557613194613140565b5b828204905092915050565b60006131ab8261230b565b91506131b68361230b565b92508282026131c48161230b565b915082820484148315176131db576131da6130dd565b5b5092915050565b600060408201905081810360008301526131fc81856122b0565b9050818103602083015261321081846122b0565b90509392505050565b7f45524337323155524953746f726167653a2055524920736574206f66206e6f6e60008201527f6578697374656e7420746f6b656e000000000000000000000000000000000000602082015250565b6000613275602e83612264565b915061328082613219565b604082019050919050565b600060208201905081810360008301526132a481613268565b9050919050565b60008190508160005260206000209050919050565b60006020601f8301049050919050565b600082821b905092915050565b60006008830261330d7fffffffffffffffffffffffffffffffffffffffffffffffffffffffffffffffff826132d0565b61331786836132d0565b95508019841693508086168417925050509392505050565b6000819050919050565b600061335461334f61334a8461230b565b61332f565b61230b565b9050919050565b6000819050919050565b61336e83613339565b61338261337a8261335b565b8484546132dd565b825550505050565b600090565b61339761338a565b6133a2818484613365565b505050565b5b818110156133c6576133bb60008261338f565b6001810190506133a8565b5050565b601f82111561340b576133dc816132ab565b6133e5846132c0565b810160208510156133f4578190505b613408613400856132c0565b8301826133a7565b50505b505050565b600082821c905092915050565b600061342e60001984600802613410565b1980831691505092915050565b6000613447838361341d565b9150826002028217905092915050565b61346082612259565b67ffffffffffffffff81111561347957613478612556565b5b61348382546128cf565b61348e8282856133ca565b600060209050601f8311600181146134c157600084156134af578287015190505b6134b9858261343b565b865550613521565b601f1984166134cf866132ab565b60005b828110156134f7578489015182556001820191506020850194506020810190506134d2565b868310156135145784890151613510601f89168261341d565b8355505b6001600288020188555050505b505050505050565b60006135348261230b565b915061353f8361230b565b9250828203905081811115613557576135566130dd565b5b92915050565b600081519050919050565b600082825260208201905092915050565b60006135848261355d565b61358e8185613568565b935061359e818560208601612275565b6135a78161229f565b840191505092915050565b60006080820190506135c760008301876123a0565b6135d460208301866123a0565b6135e16040830185612436565b81810360608301526135f38184613579565b905095945050505050565b60008151905061360d816121ca565b92915050565b60006020828403121561362957613628612194565b5b6000613637848285016135fe565b91505092915050565b7f4552433732313a206d696e7420746f20746865207a65726f2061646472657373600082015250565b6000613676602083612264565b915061368182613640565b602082019050919050565b600060208201905081810360008301526136a581613669565b9050919050565b7f4552433732313a20746f6b656e20616c7265616479206d696e74656400000000600082015250565b60006136e2601c83612264565b91506136ed826136ac565b602082019050919050565b60006020820190508181036000830152613711816136d5565b905091905056fe68747470733a2f2f7777772e6a736f6e6b65657065722e636f6d2f622f4847375768747470733a2f2f7777772e6a736f6e6b65657065722e636f6d2f622f3745383768747470733a2f2f7777772e6a736f6e6b65657065722e636f6d2f622f43374f5368747470733a2f2f7777772e6a736f6e6b65657065722e636f6d2f622f5837565368747470733a2f2f7777772e6a736f6e6b65657065722e636f6d2f622f32335453416e204e46542077697468204944206f6620257320686173206265656e206d696e74656420746f2025734142434445464748494a4b4c4d4e4f505152535455565758595a6162636465666768696a6b6c6d6e6f707172737475767778797a303132333435363738392b2fa2646970667358221220c1ddf973ea4a80878b56f902596f38143876de88d92149ee092e5220c898698a64736f6c63430008110033",
  "linkReferences": {},
  "deployedLinkReferences": {}
}